:100000006F00403C00000000500400004E0400005F
:10001000000000004E04000000000000000000008E
:100020004E0400004E04000000000000000000002C
:100030004E040000000000004E040000000000001C
:100040004E0400004E0400004E0400004E04000068
:100050004E0400004E0400004E0400004E04000058
:100060004E0400004E0400004E0400004E04000048
:100070004E0400004E0400004E0400004E04000038
:100080004E0400004E0400004E0400004E04000028
:10009000AC0B00004E0400004E0400004E040000B3
:1000A0004E0400004E0400004E0400004E04000008
:1000B0004E0400004E0400004E0400004E040000F8
:1000C0004E0400004E0400004E0400004E040000E8
:1000D0004E0400004E0400004E0400004E040000D8
:1000E0004E0400004E0400004E0400004E040000C8
:0C00F0004E0400004E0400004E0400000E
:1000FC0099C6014863D7B600B685054819A00148D2
:10010C00AE868D8EBA873383E600B308F340634A1C
:10011C00100593C7F6FFFD87FD8EBA96814733868F
:10012C00F540B388F6006342C00493C7F5FFFD8722
:10013C00FD8DB6953385E540630408026372B70202
:10014C009307A002A38FF5FE9386F5FF637AD70081
:10015C00238FF5FE9386E5FF6374D700A38EF5FE1F
:10016C0082808507A38FC7FE4DB73306F500034683
:10017C00060085072380C8005DB7AA862E8501CEB0
:10018C008328060001475C426348A70023800700D0
:10019C004842330515418280032886000C427D18A5
:1001AC00C295E385B7FE938517004CC2B385E60074
:1001BC0083C5050005072380B700F1B737F800E0C9
:1001CC00032788008327C800B305E50033B5A500D5
:1001DC003E95032688008326C8003307B640333784
:1001EC00E600B387A640998FE3C507FE828081485D
:1001FC006356050081E63305A0408548058A9307C0
:10020C00100619C2930710043A88254E138667FF0F
:10021C00B377B5022A8393F6F70F6364FE049386D3
:10022C00060393F6F60F2300D800930718003355F6
:10023C00B5026376B302638808009306D00223806C
:10024C00D700930728003385E74009462380070031
:10025C0081463346C502FD1763C7C60082803E88BF
:10026C0045BFB2967DBFB305D70083C8070003C84E
:10027C00050085062380150123800701E9BFB767B8
:10028C0000403E95814663C3C600828013871600EA
:10029C0083C705006358C70003C715002207D98F11
:1002AC00C207C1831CC1890689051105E9BFB7675F
:1002BC0000403E95814763C3C70082801841930676
:1002CC004500138517002380E5006355C500218385
:1002DC00A380E500890789053685F1BFB767004023
:1002EC00938707C00A053E9518419377F7706D8F79
:1002FC00398E2167D18F13070708D98F1CC18280D3
:10030C002E8693050003D9BF2E868D65C1BF81470C
:10031C00A146138741C23E972300A7001387C1C291
:10032C003E972300B7001387C1C13E972300C70037
:10033C008507E390D7FE8280938781E803C7771205
:10034C000DEB411122C42E862E84AA8503D567138A
:10035C0006C60547A383E7121D37B7670040C0DB0D
:10036C000D4593050003693FB2402244014541010C
:10037C0082807D558280411122C426C206C6AA8481
:10038C002E845D3FFD576319F5003165130505B8E3
:10039C003535A28526854D37B240228522449244BC
:1003AC0041018280411122C406C62E84E937B24035
:1003BC002285224441018280970100209381810390
:1003CC001721002013014143138501C1938541FC82
:1003DC006377B500232005001105E36DB5FE1715F5
:1003EC0000001305A5E6938541C0138601C1638AFD
:1003FC00C5008322050023A0550011059105E3EAF1
:10040C00C5FE93070000FD42739002BC8962938283
:10041C00828873A00230AD42739042809702000034
:10042C00938282BD93E2320073905230B7F700E0B2
:10043C00154798C385679387E783739017347300C8
:10044C00203001A0371702401C47B7068000D58F1B
:10045C001CC7AA8703C7070001E73385A740828022
:10046C008507CDBF757122C5E6D206C726C34AC122
:10047C00CEDED2DCD6DADAD8DED6E2D4EAD0EECED4
:10048C003284B68C31E10149930460188149930A96
:10049C005002130A0003254BA94B83470400130D8C
:1004AC001400A30FF10085E7BA402A449A440A4984
:1004BC00665AD65A465BB65B265C965C065DF64D74
:1004CC004E85F65949618280AA842E89C1B7638C06
:1004DC0057014A8685451305F1018294668C6A841E
:1004EC00AA99E28C5DBF0347140093072400528D38
:1004FC00A30FE100631E47073E848146814701A894
:10050C00B38777030347040005048546B2971306A7
:10051C0007FD9375F60FE375BBFE99C2A30FE100BF
:10052C00E146BE8D63D3F600B68D9306C006014638
:10053C006318D7000347040005460504A30FE10028
:10054C008346F101130740066383E6066365D70211
:10055C0093078005638EF60893073006638BF60AC3
:10056C00A1D64A8685451305F1018294668C8DBF10
:10057C00130D000251B713075007638AE6021307E5
:10058C0080076387E60613073007E39CE6FC138CB1
:10059C004C0083AC0C003EC66685653DB247AA850F
:1005AC006356F0083818EE866A8666851DA0138C93
:1005BC004C0015C69386B6F8181093B6160003A512
:1005CC000C000146A94525313818EE866A86AA85A5
:1005DC000810393EAA854A862818829411B79307C9
:1005EC00500718106394F6008546D1BF8146C1BFF1
:1005FC0003A50C00138686FA1810854613361600D0
:10060C00C145F536138C4C00AA853818EE866A86DF
:10061C00C1B783A70C00138C4C003818A30FF10042
:10062C00EE866A8685451305F10165B74A866685AF
:10063C006DB7397132D42A862ED236D681455410F4
:10064C001305003B06CE3AD83EDA42DC46DE36C60F
:10065C00113DF240216182802A96AA876393C700DC
:10066C0082802380B7008507D5BF7971380083C598
:10067C0041C006D622D481473A851306F00F214893
:10068C009386C1C2BE9683C606000D07B386B6021A
:10069C00B3C6C602A30ED7FE938641C2BE9683C6CE
:1006AC000600B386B602B3C6C602230FD7FE9386E6
:1006BC00C1C1BE9683C606008507B386B602B3C613
:1006CC00C602A30FD7FEE39D07FB138601C50147A6
:1006DC00138401C5FD586148B307E50003C3070047
:1006EC00B2859D46B357D340858BFD17B59B938739
:1006FC006702FD162390F5008905E39516FF0507A3
:10070C004106E31B07FD130680078145138501DDB8
:10071C00A13737070240544FB7070040F99A54CF1E
:10072C009306000254C39306C00F14D300D7544F42
:10073C0093E6160054CF8546239AD7001C4393F7B3
:10074C000702EDDFB2502254930700025CC34561EF
:10075C00828083C781C115476361F7024111FD1780
:10076C0006C693F7F70F1147636EF70005678A0704
:10077C0013070714BA979C4382871307000F6383F0
:10078C00E70A82800146814501455136B24041015C
:10079C00E9BD938781C303C6270083C5170003C532
:1007AC000700E5B7938781C383C607001D47636FB6
:1007BC00D70603C61700138741C236972300C7001C
:1007CC0003C627001387C1C236972300C70083C70F
:1007DC0037001387C1C136972300F70045BF03C705
:1007EC0081C32382E1C05DB7938781C30147214652
:1007FC0083C50700938641C2BA962380B60083C591
:10080C0017009386C1C2BA962380B60083C5270011
:10081C009386C1C1BA962380B60005078D07E319EC
:10082C00C7FCADB78D451385C1C039B6B240410187
:10083C008280B717024098433971C166558F06DE26
:10084C0022DC26DA4AD84ED652D456D25AD05ECEB4
:10085C0062CC66CA98C337E71600130707363AC648
:10086C0032479306F7FF36C611C798439316E70035
:10087C00E3D806FEB717024098439316E70063DDF2
:10088C000606B72602409842619B1367170098C270
:10089C004167D8C39843B7060001558F98C337E713
:1008AC001600130707363AC632479306F7FF36C6CB
:1008BC0011C7984393166700E3D806FE371702401A
:1008CC001C439396670063D906025C432146F19B57
:1008DC0093E727005CC3B7E71600938707363EC63D
:1008EC00B2479386F7FF36C689C75C43B18BE39951
:1008FC00C7FEB7170240DC43B7170240D843B70610
:10090C0040FFFD16758FD8C3984F3716F0FF7D1634
:10091C001367470098CF37170140130707805443DC
:10092C00F18E37260200D18E54C3B706001814CBB3
:10093C00984FB70680001367570098CF1147D8CB54
:10094C00D84F558FD8CFB7670040938707C005475E
:10095C00B8C323A0070402C41307703EA247635315
:10096C00F718B7670040938707C023A8070493873D
:10097C0081E89387071005470946FD563769004003
:10098C00A16B90CBD8CB94CFD8CF938481E81304B0
:10099C000008130C001C856CBA89368A938B0B40AB
:1009AC00B28A130B0904637A8C00A285130404FC2D
:1009BC0013854C154204B539418083A70411138764
:1009CC00F7FF63E5E912131714002395E4122320B3
:1009DC00890023220900638D571113040404420477
:1009EC00418041099104E31069FDB74702409387A8
:1009FC0007809843C576FD161367270098C3B76721
:100A0C0000402967938707C0130707C0B8C323A208
:100A1C0007044147B7E700E023A2E710B7170240ED
:100A2C00D84F5146B28513671700D8CFD84B3285B3
:100A3C0013671700D8CB984F85491367570098CF89
:100A4C0037170140130707801C43F58FAD66D58F10
:100A5C001CC3B7070040239407021307B003239667
:100A6C00E7022390070403D7C70199661377F70FA2
:100A7C00558F239EE70003D707028566558F239079
:100A8C00E70203D707009386070413670708239030
:100A9C00E70003D7C700136707102396E700370753
:100AAC000240232E070054D389669386065954CFEF
:100ABC0003D70700136717002390E700EFF03F857B
:100ACC006D3637C5DB00130505A0EFF02FEF01469F
:100ADC0081450145EFF0BF83493E83A441C3C1C0AA
:100AEC00014B95A8A24785073EC48DBDE39B47EFFC
:100AFC00931714002396F4122324890023267901DA
:100B0C00E9BD03A741C1938781E4DA9783C7070046
:100B1C0039EF238CF1C0A38801C015476365F70238
:100B2C00FD1793F7F70F0D476363F70205678A0705
:100B3C0013078717BA979C43828791472388F1C084
:100B4C0023AA31C101A81307000F6395E70023887E
:100B5C0001C00131050BE3469BFA23AA01C25D6576
:100B6C0013050570EFF08FE58DBFE147C1BF03C6DC
:100B7C0011C1938681C3B2962380F6001307160029
:100B8C0083C701C11377F70FA388E1C0E364F7FCB7
:100B9C00C93623AA01C07DBF8D474DB7854779BFA4
:100BAC001D714AD237690040A6C4832449C43ED87B
:100BBC0086CE96CC9ACA9EC8A2C6AAC2AEC032DE57
:100BCC0036DC3ADA42D646D44ED052CE56CC5ACA3D
:100BDC0072C876C67AC47EC29397040163D7071E87
:100BEC0013FAF400130909C093172A003E998329BC
:100BFC000900139709016350070E138481E8631BE6
:100C0C000A4013974901635707400355C412214604
:100C1C00938581E9EFF0AFE9035704018355240173
:100C2C0003460401935687002207558F2394E1E86D
:100C3C0003574401835664012326040042074D8F59
:100C4C002311D40058C09375060683471401639E84
:100C5C00053229466364F62C05668A071306861846
:100C6C00B2979C43828785679387C720856590439D
:100C7C00631AE61283AA470083C487002326540113
:100C8C0063D39600B684139B0401135B0B012311F1
:100C9C0064019307000463D39700BE840355A41228
:100CAC00D6852686EFF0AFDDB7670040C4C3930549
:100CBC0000030145A69A330B9B40EFF06FE423260B
:100CCC005401231164018327090093F7F77093E70C
:100CDC0007082320F90093F909086384090893870E
:100CEC0081E8D29723820712138481E863130A06E2
:100CFC00034704009547631BF70003479400B7674D
:100D0C000040938707C013670708F8C7835924006E
:100D1C006384093C93070004CE8463F33701BE84DB
:100D2C00032AC4000355A412C204C180D2852686AE
:100D3C00EFF0EFD4B7670040C4C39305000301453F
:100D4C00269AB3899940EFF0AFDB23264401231197
:100D5C00340183270900216793F7F770D98F23207B
:100D6C00F900B7670040938707C061777D17F8C318
:100D7C003644F640E6425643C643A64416458645DD
:100D8C007256E2565257C2573258A25812598259CB
:100D9C00724AE24A524B424EB24E224F924F25615A
:100DAC0073002030B10713864525E392C7ECC1458B
:100DBC000145EFF0EFD485650145EFF0EFD493F9E1
:100DCC00F970B767004023A037C193F70440E9C31B
:100DDC00B7670040938707C01307F0BFF8C323A879
:100DEC000704138781E82302071223140700A305C5
:100DFC00070023A00700A30207120544C0C3230366
:100E0C000712894694C7A30307120D47D8C71306C8
:100E1C000020930500600145EFF04FCC0D66B285C4
:100E2C000145EFF0AFCB130600029305000301451B
:100E3C00EFF0CFCA938981E8114A03A94911630ED7
:100E4C0009020146930500602285EFF02FC9B767B0
:100E5C000040938707C0131724003E971C43C19B87
:100E6C00C18F1CC3FD57631EF9268D652285EFF0DB
:100E7C00AFC981452285EFF0AFC805049109E31E87
:100E8C0044FBB7670040938707C013070008F8C7F7
:100E9C009397440163D20702B76700407D7793872D
:100EAC0007C01307F77FF8C3938781E803C7A70030
:100EBC00136727002385E7009397340163D007025B
:100ECC00B76700407D77938707C07D17F8C393877A
:100EDC0081E803C7A700759B2385E70093F70410EF
:100EEC0081CBB7670040938707C01307F0EFF8C3B7
:100EFC0093F7042081CBB7670040938707C0130793
:100F0C00F0DFF8C393972401E3D407E6B7670040FA
:100F1C00938707C0797799BDA304E400B7670040B5
:100F2C0023A20700930500030145EFF06FBD61BBE1
:100F3C0085472304E400A305F400CDB70355A412A0
:100F4C000946938581E923180400EFF04FB3B76786
:100F5C0000400947D8C3930500030145EFF04FBA91
:100F6C00231104008DB3230804000355A412054675
:100F7C00938581E9EFF0AFB0B76700400547D9BF63
:100F8C00834784002308F400CDB71377060219CBEE
:100F9C00130710026383E7026368F700130700026C
:100FAC00638BE700814419A89387E7FD93F7F70F4C
:100FBC000547E369F7FEE38C06DEB68462066186BC
:100FCC0063520604939A040193DA0A012311540123
:100FDC009307000463D39700BE840355A41226869E
:100FEC00938581E9EFF0AFA9B7670040C4C39305BF
:100FFC0000030145B38A9A40EFF08FB044C423112B
:10100C005401D1B181DE8D650145EFF0EFAF930551
:10101C00000219BF938637008A063767004036975F
:10102C000443931A6A00A297C10A03D5C71293F41A
:10103C00F43FA29A2686D685EFF06FA763150A02B5
:10104C008357240081CF23110400B767004023A2EB
:10105C000700930500030145EFF08FAA8D6501454C
:10106C00EFF08FAA8DB18947631EFA0203A741C323
:10107C0093070004998F858F63DE0700938681E4C4
:10108C00B305F0409D8E1305F0036350B5023E97F7
:10109C0023AAE1C28146814763C2970281C6269783
:1010AC0023AAE1C28D65528565BF83C806003388CB
:1010BC00F6008505230018018506C1BFB306F700AD
:1010CC00138581E4AA963385FA000345050085074C
:1010DC002380A6008546C9B78D650145EFF0CFA2E8
:1010EC008DB98547E31BF9D881452285EFF0CFA157
:1010FC009305000241B300000803300030003700B4
:10110C000000000018036E006F006B006E006F0093
:10111C006B0020004C0045004400730000000000F0
:10112C000E036E006F006B006E006F006B00000012
:10113C00040309049E070000B0070000EA07000042
:10114C00F407000098070000435249544943414CAE
:10115C003A205553424420504D41204F564552465B
:10116C004C4F5720282564290A000000A40B0000CE
:10117C00460B0000A80B0000760B0000480F000087
:10118C00280F0000280F0000280F0000280F000077
:10119C00240F0000720C0000280F00008C0F0000C0
:1011AC003C0F0000720F0000090243000201008096
:1011BC00320904000001020201000524001001059F
:1011CC002401000104240202052406000107058104
:1011DC000340000109040100020A00000007050297
:1011EC0002400000070583024000000012011001BC
:1011FC000200004009124E4E0700010203010000DC
:10120C0000010000F81100001200000000020000B4
:10121C00B411000043000000000300003C1100006A
:10122C0004000000010309042C1100000E00000052
:10123C000203090410110000180000000303090444
:08124C0004110000080000007D
:0C125400FF000000000000004E4E0400EF
:00000001FF
