:100000006F00603D0000000062040000600400001A
:10001000000000006004000000000000000000007C
:100020006004000060040000000000000000000008
:1000300060040000000000006004000000000000F8
:100040006004000060040000600400006004000020
:100050006004000060040000600400006004000010
:100060006004000060040000600400006004000000
:1000700060040000600400006004000060040000F0
:1000800060040000600400006004000060040000E0
:1000900064100000600400006004000060040000C0
:1000A00060040000600400006004000060040000C0
:1000B00060040000600400006004000060040000B0
:1000C00060040000600400006004000060040000A0
:1000D0006004000060040000600400006004000090
:1000E0006004000060040000600400006004000080
:0C00F000600400006004000060040000D8
:1000FC0099C6014863D7B600B685054819A00148D2
:10010C00AE868D8EBA873383E600B308F340634A1C
:10011C00100593C7F6FFFD87FD8EBA96814733868F
:10012C00F540B388F6006342C00493C7F5FFFD8722
:10013C00FD8DB6953385E540630408026372B70202
:10014C009307A002A38FF5FE9386F5FF637AD70081
:10015C00238FF5FE9386E5FF6374D700A38EF5FE1F
:10016C0082808507A38FC7FE4DB73306F500034683
:10017C00060085072380C8005DB7AA862E8501CEB0
:10018C008328060001475C426348A70023800700D0
:10019C004842330515418280032886000C427D18A5
:1001AC00C295E385B7FE938517004CC2B385E60074
:1001BC0083C5050005072380B700F1B737F800E0C9
:1001CC00032788008327C800B305E50033B5A500D5
:1001DC003E95032688008326C8003307B640333784
:1001EC00E600B387A640998FE3C507FE828081485D
:1001FC006356050081E63305A0408548058A9307C0
:10020C00100619C2930710043A88254E138667FF0F
:10021C00B377B5022A8393F6F70F6364FE049386D3
:10022C00060393F6F60F2300D800930718003355F6
:10023C00B5026376B302638808009306D00223806C
:10024C00D700930728003385E74009462380070031
:10025C0081463346C502FD1763C7C60082803E88BF
:10026C0045BFB2967DBFB305D70083C8070003C84E
:10027C00050085062380150123800701E9BFB767B8
:10028C0000403E95814663C3C600828013871600EA
:10029C0083C705006358C70003C715002207D98F11
:1002AC00C207C1831CC1890689051105E9BFB7675F
:1002BC0000403E95814763C3C70082801841930676
:1002CC004500138517002380E5006355C500218385
:1002DC00A380E500890789053685F1BFB767004023
:1002EC00938707C00A053E9518419377F7706D8F79
:1002FC00398E2167D18F13070708D98F1CC18280D3
:10030C002E8693050003D9BF2E868D65C1BF81470C
:10031C00A146138701C43E972300A700138781C40D
:10032C003E972300B700138781C33E972300C70075
:10033C008507E390D7FE8280238A01C223A601C2DF
:10034C009387C1C223A207008280938781EE03C7E3
:10035C0077120DEB411122C42E862E84AA8503D56B
:10036C00671306C60547A383E712113FB767004022
:10037C00C0DB0D45930500036137B24022440145B3
:10038C00410182807D558280411122C426C206C65D
:10039C00AA842E845D3FFD576319F5003165130562
:1003AC0005B8293DA28526854D37B24022852244C9
:1003BC00924441018280411122C406C62E84E93741
:1003CC00B240228522444101828097010020938112
:1003DC00610217210020130121421385C1C19385AD
:1003EC0041026377B500232005001105E36DB5FECE
:1003FC001715000013050539938541C01386C1C13B
:10040C00638AC5008322050023A0550011059105C0
:10041C00E3EAC5FE93070000FD42739002BC8962BB
:10042C009382828873A00230AD427390428097020F
:10043C000000938262BC93E2320073905230B7F7A3
:10044C0000E0154798C38567938787BD7390173471
:10045C007300203001A0371702401C47B7068000FC
:10046C00D58F1CC7AA8703C7070001E73385A740B0
:10047C0082808507CDBF757122C5E6D206C726C31B
:10048C004AC1CEDED2DCD6DADAD8DED6E2D4EAD075
:10049C00EECE3284B68C31E1014993046018814967
:1004AC00930A5002130A0003254BA94B83470400FF
:1004BC00130D1400A30FF10085E7BA402A449A44A7
:1004CC000A49665AD65A465BB65B265C965C065D54
:1004DC00F64D4E85F65949618280AA842E89C1B7A2
:1004EC00638C57014A8685451305F1018294668C0D
:1004FC006A84AA99E28C5DBF034714009307240019
:10050C00528DA30FE100631E47073E84814681474D
:10051C0001A8B38777030347040005048546B29707
:10052C00130607FD9375F60FE375BBFE99C2A30F77
:10053C00E100E146BE8D63D3F600B68D9306C0068E
:10054C0001466318D7000347040005460504A30FB2
:10055C00E1008346F101130740066383E6066365F9
:10056C00D70293078005638EF60893073006638BDA
:10057C00F60AA1D64A8685451305F1018294668C4C
:10058C008DBF130D000251B713075007638AE602A3
:10059C00130780076387E60613073007E39CE6FC26
:1005AC00138C4C0083AC0C003EC66685653DB2478F
:1005BC00AA856356F0083818EE866A8666851DA0F3
:1005CC00138C4C0015C69386B6F8181093B616000B
:1005DC0003A50C000146A94519393818EE866A8620
:1005EC00AA8508103136AA854A862818829411B734
:1005FC009307500718106394F6008546D1BF8146C7
:10060C00C1BF03A50C00138686FA18108546133655
:10061C001600C145E93E138C4C00AA853818EE86AD
:10062C006A86C1B783A70C00138C4C003818A30F33
:10063C00F100EE866A8685451305F10165B74A8699
:10064C0066856DB7397132D42A862ED236D681455D
:10065C0054101305203C06CE3AD83EDA42DC46DE76
:10066C0036C6113DF240216182802A96AA87639397
:10067C00C70082802380B7008507D5BF7971380009
:10068C0083C5C1C006D622D481473A851306F00F24
:10069C002148938681C4BE9683C606000D07B38697
:1006AC00B602B3C6C602A30ED7FE938601C4BE968D
:1006BC0083C60600B386B602B3C6C602230FD7FEA6
:1006CC00938681C3BE9683C606008507B386B602A1
:1006DC00B3C6C602A30FD7FEE39D07FB138601CB5F
:1006EC000147138401CBFD586148B307E50003C3F0
:1006FC000700B2859D46B357D340858BFD17B59B3C
:10070C0093876702FD162390F5008905E39516FF84
:10071C0005074106E31B07FD13068007814513857A
:10072C0001E3A13737070240544FB7070040F99A4D
:10073C0054CF9306000254C39306C00F14D300D7B2
:10074C00544F93E6160054CF8546239AD7001C438A
:10075C0093F70702EDDFB2502254930700025CC3FB
:10076C004561828083C741C31147FD1793F7F70F8B
:10077C006361F72405678A071307C75EBA979C4322
:10078C00938501C4138681C4938681C3828783D7E2
:10079C00A1C20D47411113F5F70F3307E50222C62D
:1007AC000143930F40059302900AF5537954A14EDF
:1007BC001377F70F63E7AF049348F7FF93F8F80F3D
:1007CC003A8E0148338F650023001F01B308660081
:1007DC002380C801B38866001305050213070706BA
:1007EC002380080105031375F50F1377F70FE31337
:1007FC00D3FD91073244C207C1832395F1C2410155
:10080C00B5BD63ECA200330EE44013081700137E51
:10081C00FE0F1378F80F814875B7930827003388BB
:10082C00E34093F8F80F1378F80F014E61BF83D7AC
:10083C00A1C213978701618713F5F70F634607066B
:10084C0006051377F50F83C891C203C881C203C58F
:10085C0071C2B388E8021303F00F3308E8023307C0
:10086C00E5020145B3C868023348680293F8F80FF3
:10087C00334767021378F80F21431377F70F338E42
:10088C00A50023001E01330EA60023000E01338E9B
:10089C00A6002300EE000505E31365FE9107C207D1
:1008AC00C1832395F1C2A9BF1307F00F098F060767
:1008BC001377F70F49BF83CE91C283D7A1C203CF61
:1008CC0081C283CF71C28D42014721433385E7003A
:1008DC00336555020DE5F6887A887E85338EE50002
:1008EC0023001E01B308E600238008013388E600CC
:1008FC002300A8000507E31B67FC85074DB781485B
:10090C0001480145E1BF83D7A1C2254533F5A702B4
:10091C0003CF91C283CF81C283C271C2214E0147E2
:10092C006355A7027A83FE881688B38EE500238070
:10093C006E003303E60023001301B388E600238026
:10094C0008010507E31EC7FD4DBF0143814801485F
:10095C00E9BF03CF91C283CF81C203A781C083C2F9
:10096C0071C20145214E9317D7003D8F9357170144
:10097C00B98F139757003D8F9D8B85CB01438148D1
:10098C008147B38EA50023806E003303A60023009D
:10099C001301B388A6002380F8000505E315C5FDF7
:1009AC0083D7A1C223A4E1C089BF7A83FE8896872E
:1009BC00C9BF828083C761C24147636DF700056779
:1009CC008A0713070760BA979C43411106C622C4D5
:1009DC0026C282871307100B6380E71E1307000FD4
:1009EC006387E71C130700026384E7168280A93231
:1009FC00014681450145EFF09F912244B24092445B
:100A0C004101ADB9153A938781C903C6270083C547
:100A1C00170003C50700C5B7EFF01F92938781C974
:100A2C0083C607001D47636DD71803C617001387CD
:100A3C0001C436972300C70003C62700138781C45F
:100A4C0036972300C70083C73700138781C33697B7
:100A5C002300F7005DB703C781C92386E1C071BFCE
:100A6C00EFF09F8D938781C90147214683C507000D
:100A7C00938601C4BA962380B60083C5170093866B
:100A8C0081C4BA962380B60083C52700938681C3A0
:100A9C00BA962380B60005078D07E319C7FCB1BFD2
:100AAC00EFF09F89938781C903C8470003C467008F
:100ABC00238601C103C7070083C6570003C517006F
:100ACC0083C5270003C63700B707004083D44742CD
:100ADC002204558CA294C2049307F00FC1806317B3
:100AEC00F702EFF0DF82E30A04F0938781C8014735
:100AFC00854521469386C1C2BA96239097002380E0
:100B0C00B60005078907E317C7FEC5BD9D47E3E699
:100B1C00E7EE938701C4BA972380A700938781C41B
:100B2C00BA972380B700938781C3BA972380C700F5
:100B3C00E30504EC93161700938781C8B6972390AE
:100B4C0097009387C1C2BA9705472380E70075B514
:100B5C0083C681C91146938781C91387F6FF137722
:100B6C00F70F6364E60623A601C21387C1C22322D2
:100B7C000700238AD1C203C7170019E313078002A9
:100B8C002392E1C083C62700A384D1C283C6370059
:100B9C002384D1C203C74700A383E1C2239501C2BA
:100BAC00B707004003D747422392E1C265BE8D458B
:100BBC00138581C16FF06FF99145138541C1DDBF7C
:100BCC00B24022449244410182808280B717024095
:100BDC0098433971C166558F06DE22DC26DA4AD875
:100BEC004ED652D456D25AD05ECE62CC66CA98C378
:100BFC0037E71600130707363AC632479306F7FF56
:100C0C0036C611C798439316E700E3D806FEB7170C
:100C1C00024098439316E70063DD0606B7260240B0
:100C2C009842619B1367170098C24167D8C39843D9
:100C3C00B7060001558F98C337E716001307073620
:100C4C003AC632479306F7FF36C611C79843931638
:100C5C006700E3D806FE371702401C4393966700E3
:100C6C0063D906025C432146F19B93E727005CC3E2
:100C7C00B7E71600938707363EC6B2479386F7FF51
:100C8C0036C689C75C43B18BE399C7FEB7170240E0
:100C9C00DC4313072033239AE1C4B7F5FF1F37F762
:100CAC00FF1F938741C51307877E05689385457F92
:100CBC000346070093060873A38107001375F6001B
:100CCC0011823695B2960345050083C60600A382B1
:100CDC0007002382A7002381D70005079107E3199A
:100CEC00B7FCB7170240D843B70640FFFD16758F07
:100CFC00D8C3984F3716F0FF7D161367470098CF6F
:100D0C0037170140130707805443F18E3726020032
:100D1C00D18E54C3B706001814CB984FB706800079
:100D2C001367570098CF1147D8CBD84F558FD8CFD2
:100D3C00B7670040938707C00547B8C323A00704D3
:100D4C0002C41307703EA247635BF71AB7670040F3
:100D5C00938707C023A80704938781EE9387071016
:100D6C0005470946FD5637690040A16B90CBD8CB9F
:100D7C0094CFD8CF938481EE13040008130C001C7D
:100D8C00856CBA89368A938B0B40B28A130B090493
:100D9C00637B8C00A285130404FC13854C64420411
:100DAC00EFF05F8A418083A704111387F7FF63EC90
:100DBC00E914131714002395E4122320890023222D
:100DCC00090063845715130404044204418041094B
:100DDC009104E31F69FBB747024093870780984350
:100DEC0071761306F6B71367270098C3B7670040F0
:100DFC002967938707C0130707C0B8C323A207044A
:100E0C004147B7E700E023A2E710371702405C4FD9
:100E1C00854493E727005CCFB70700402394C74273
:100E2C007D562396C742130600082390C740239A89
:100E3C00974003D60740458E2390C740544F4576C4
:100E4C007D16C58E54CF544BC58E54CB144F93E6A0
:100E5C00560014CFB7160140938606809842718FC6
:100E6C002D66518F98C2239407021307B003239663
:100E7C00E7022390070403D7C701996651461377FD
:100E8C00F70F558F239EE70003D707028566B285BF
:100E9C00558F2390E70203D707009386070432850A
:100EAC00136707082390E70003D7C70013670710E1
:100EBC002396E70037070240232E070054D3896698
:100ECC009386065954CF03D70700458F2390E7002C
:100EDC00EFF0EFC3EFF08FFA37C5DB00130505A079
:100EEC00EFF0CFAD014681450145EFF04FC2EFF079
:100EFC00EFF803AA01C563020A0801449DA8A247A2
:100F0C0085073EC489B5E39447ED931714002396E7
:100F1C00F412232489002326790175B503A701C295
:100F2C00938781EAA29783C70700631D070E23836B
:100F3C00F1C2A38E01C04147636FF70005678A07B2
:100F4C0013078766BA979C4382871147238EE1C0AB
:100F5C0023A091C231A81307100B638CE70A130767
:100F6C00000F6388E70A930600021547E380D7FE5B
:100F7C000504E34544FB23A801C4B707004003D490
:100F8C004742420441801387C1C2938681C881477E
:100F9C0081452145034607001DCA03D606003306CA
:100FAC00C440131E060163440E02138681C33E9691
:100FBC0023000600138681C43E9623000600138688
:100FCC0001C43E96230006002300070085458507D3
:100FDC0005078906E390A7FC99C1EFF02FEA83C7B8
:100FEC0041C395C383D741C283D641C01D8C4204F3
:100FFC0013960601418441866347C400B697239239
:10100C00F1C2EFF02FF63165130505B8EFF00F9B29
:10101C00CDB5238E01C0EFF0FF9999BF61473DB765
:10102C001D472DB703C6D1C1938681C9B2962380C3
:10103C00F6001307160083C7C1C11377F70FA38EF1
:10104C00E1C0E367F7F2EFF0FF9623A001C20DB702
:10105C000D47EDBD0547DDBD1D714AD23769004016
:10106C00A6C4832449C43ED886CE96CC9ACA9EC8C0
:10107C00A2C6AAC2AEC032DE36DC3ADA42D646D4BA
:10108C004ED052CE56CC5ACA72C876C67AC47EC2DC
:10109C009397040163D7071E13FAF400130909C0D0
:1010AC0093172A003E99832909001397090163506D
:1010BC00070E138481EE631B0A4013974901635793
:1010CC0007400355C4122146938581EFEFF02F9E04
:1010DC0003570401835524010346040193568700EA
:1010EC002207558F2394E1EE035744018356640184
:1010FC002326040042074D8F2311D40058C093754A
:10110C00060683471401639E053229466364F62C58
:10111C0005668A071306C66AB2979C438287856761
:10112C009387477485659043631AE61283AA470038
:10113C0083C487002326540163D39600B684139B83
:10114C000401135B0B01231164019307000463D3A7
:10115C009700BE840355A412D6852686EFF02F92F5
:10116C00B7670040C4C3930500030145A69A330B2F
:10117C009B40EFF0EF982326540123116401832741
:10118C00090093F7F77093E707082320F90093F908
:10119C00090863840908938781EED297238207128A
:1011AC00138481EE63130A06034704009547631BFF
:1011BC00F70003479400B7670040938707C0136795
:1011CC000708F8C7835924006384093C930700047B
:1011DC00CE8463F33701BE84032AC4000355A412E2
:1011EC00C204C180D2852686EFF06F89B7670040B4
:1011FC00C4C3930500030145269AB3899940EFF0C7
:10120C002F902326440123113401832709002167E1
:10121C0093F7F770D98F2320F900B76700409387B5
:10122C0007C061777D17F8C33644F640E642564353
:10123C00C643A644164586457256E2565257C257C7
:10124C003258A25812598259724AE24A524B424EB3
:10125C00B24E224F924F256173002030B107138696
:10126C00C578E392C7ECC1450145EFF06F89856500
:10127C000145EFF06F8993F9F970B767004023A02F
:10128C0037C193F70440E9C3B7670040938707C0A1
:10129C001307F0BFF8C323A80704138781EE2302BA
:1012AC00071223140700A305070023A00700A302BD
:1012BC0007120544C0C323030712894694C7A3032E
:1012CC0007120D47D8C7130600209305006001458F
:1012DC00EFF0CF800D66B2850145EFF02F8013063D
:1012EC000002930500030145EFE05FFF938981EE57
:1012FC00114A03A94911630E0902014693050060C6
:10130C002285EFE0BFFDB7670040938707C0131736
:10131C0024003E971C43C19BC18F1CC3FD57631E09
:10132C00F9268D652285EFE03FFE81452285EFE0B1
:10133C003FFD05049109E31E44FBB767004093870A
:10134C0007C013070008F8C79397440163D207023C
:10135C00B76700407D77938707C01307F77FF8C303
:10136C00938781EE03C7A700136727002385E70047
:10137C009397340163D00702B76700407D7793875A
:10138C0007C07D17F8C3938781EE03C7A700759B31
:10139C002385E70093F7041081CBB7670040938750
:1013AC0007C01307F0EFF8C393F7042081CBB7679E
:1013BC000040938707C01307F0DFF8C3939724010D
:1013CC00E3D407E6B7670040938707C0797799BDE8
:1013DC00A304E400B767004023A2070093050003B1
:1013EC000145EFE0FFF161BB85472304E400A30551
:1013FC00F400CDB70355A4120946938581EF231849
:10140C000400EFE0DFE7B76700400947D8C3930556
:10141C0000030145EFE0DFEE231104008DB3230838
:10142C0004000355A4120546938581EFEFE03FE5D8
:10143C00B76700400547D9BF834784002308F400F1
:10144C00CDB71377060219CB130710026383E7029B
:10145C006368F70013070002638BE700814419A847
:10146C009387E7FD93F7F70F0547E369F7FEE38CE6
:10147C0006DEB6846206618663520604939A040102
:10148C0093DA0A01231154019307000463D39700E4
:10149C00BE840355A4122686938581EFEFE03FDED0
:1014AC00B7670040C4C3930500030145B38A9A4053
:1014BC00EFE01FE544C423115401D1B181DE8D65E9
:1014CC000145EFE07FE49305000219BF93863700D6
:1014DC008A063767004036970443931A6A00A2972E
:1014EC00C10A03D5C71293F4F43FA29A2686D68577
:1014FC00EFE0FFDB63150A028357240081CF231131
:10150C000400B767004023A20700930500030145C0
:10151C00EFE01FDF8D650145EFE01FDF8DB18947DF
:10152C00631EFA0203A701C593070004998F858FE8
:10153C0063DE0700938681EAB305F0409D8E1305A8
:10154C00F0036350B5023E9723A8E1C4814681475E
:10155C0063C2970281C6269723A8E1C48D65528584
:10156C0065BF83C806003388F60085052300180183
:10157C008506C1BFB306F700138581EAAA963385A9
:10158C00FA000345050085072380A6008546C9B7E8
:10159C008D650145EFE05FD78DB98547E31BF9D821
:1015AC0081452285EFE05FD69305000241B3000030
:1015BC0018036E006F006B006E006F006B00200054
:1015CC004C00450044007300000000000E036E0048
:1015DC006F006B006E006F006B00000004030904C9
:1015EC009A0700003A080000C20800001209000027
:1015FC005E090000FA090000100A0000240A00002D
:10160C00620A00006C0A0000060A0000CC0B000005
:10161C00CC0B0000CC0B0000CC0B0000CC0B000062
:10162C00CC0B0000CC0B0000CC0B0000CC0B000052
:10163C00CC0B0000AC0A0000435249544943414CC6
:10164C003A205553424420504D41204F5645524666
:10165C004C4F5720282564290A0000001E1000005A
:10166C005C100000560F00006010000028100000F5
:10167C001E1000007C0F00007C0F00007C0F00008F
:10168C007C0F00007C0F00007C0F00007C0F000022
:10169C007C0F00007C0F00007C0F00002C10000061
:1016AC0000140000E0130000E0130000E013000041
:1016BC00E0130000DC1300002A110000E01300000E
:1016CC0044140000F41300002A1400000902430023
:1016DC00020100803209040000010202010005240D
:1016EC000010010524010001042402020524060057
:1016FC00010705810340000109040100020A0000F2
:10170C0000070502024000000705830240000000AC
:10171C00120110010200004009124E4E0700010296
:10172C000301000030313233343536373839414219
:10173C004344454600000000000100001C17000057
:10174C001200000000020000D81600004300000048
:10175C0000030000E8150000040000000103090468
:10176C00D81500000E00000002030904BC1500008F
:10177C001800000003030904500000203200000090
:10178C00280000000DF0A5A5FF00000000000000DF
:08179C00010106004E4E04009D
:00000001FF
