:102000006F00203900000000202400001E24000082
:10201000000000001E24000000000000000000007E
:102020001E2400001E24000000000000000000002C
:102030001E240000000000001E240000000000001C
:102040001E2400001E2400001E2400001E24000088
:102050001E2400001E2400001E2400001E24000078
:102060001E2400001E2400001E2400001E24000068
:102070001E2400001E2400001E2400001E24000058
:102080001E2400001E2400001E2400001E24000048
:102090009A3100001E2400001E2400001E240000AF
:1020A0001E2400001E2400001E2400001E24000028
:1020B0001E2400001E2400001E2400001E24000018
:1020C0001E2400001E2400001E2400001E24000008
:1020D0001E2400001E2400001E2400001E240000F8
:1020E0001E2400001E2400001E2400001E240000E8
:0C20F0001E2400001E2400001E2400001E
:1020FC002E85828099C6014863D7B600B6850548FF
:10210C0019A00148AE868D8EBA873383E600B308DA
:10211C00F340634A100593C7F6FFFD87FD8EBA9610
:10212C0081473386F540B388F6006342C00493C7F9
:10213C00F5FFFD87FD8DB6953385E54063040802F8
:10214C006372B7029307A002A38FF5FE9386F5FF87
:10215C00637AD700238FF5FE9386E5FF6374D7006F
:10216C00A38EF5FE82808507A38FC7FE4DB733067D
:10217C00F5000346060085072380C8005DB7AA86D4
:10218C002E8501CE8328060001475C426348A700D8
:10219C0023800700484233051541828003288600BE
:1021AC000C427D18C295E385B7FE938517004CC28F
:1021BC00B385E60083C5050005072380B700F1B79A
:1021CC0037F800E0032788008327C800B305E50033
:1021DC0033B5A5003E95032688008326C800330737
:1021EC00B6403337E600B387A640998FE3C507FEA8
:1021FC00828081486356050081E63305A0408548FE
:10220C00058A9307100619C2930710043A88254EC5
:10221C00138667FFB377B5022A8393F6F70F6364CF
:10222C00FE049386060393F6F60F2300D80093075B
:10223C0018003355B5026376B30263880800930621
:10224C00D0022380D700930728003385E740094646
:10225C002380070081463346C502FD1763C7C600BD
:10226C0082803E8845BFB2967DBFB305D70083C838
:10227C00070003C80500850623801501238007018C
:10228C00E9BFB76700403E95814663C3C6008280B4
:10229C001387160083C705006358C70003C71500D2
:1022AC002207D98FC207C1831CC189068905110574
:1022BC00E9BFB76700403E95814763C3C700828082
:1022CC00184193064500138517002380E5006355DC
:1022DC00C5002183A380E500890789053685F1BFF8
:1022EC00B7670040938707C00A053E95184193775E
:1022FC00F7706D8F398E2167D18F13070708D98F2F
:10230C001CC182802E8693050003D9BF2E868D6555
:10231C00C1BF8147A146138741C43E972300A70044
:10232C001387C1C43E972300B7001387C1C33E97E0
:10233C002300C7008507E390D7FE8280238C01C25F
:10234C0023A801C2938701C323A20700828093872D
:10235C0001FB03C777121DE7411122C42E862E8480
:10236C00AA8503D5671306C60547A383E712113F59
:10237C00B7670040C0DB2244B240930500030D4513
:10238C00410149B7828097E1FF1F9381A106170194
:10239C000020130161451385C1C19385C10E63777C
:1023AC00B500232005001105E36DB5FE17150000DF
:1023BC0013058550938541C01386C1C1638AC5003E
:1023CC008322050023A0550011059105E3EAC5FE03
:1023DC00896793870700FD42739002BC89629382E0
:1023EC00828873A00230AD42739042809702000045
:1023FC00938282C093E2320073905230B7F700E0C0
:10240C00154798C38D679387C7C9739017347300AA
:10241C00203001A0371702401C47B7068000D58F2B
:10242C001CC7AA8703C7070001E73385A740828032
:10243C008507CDBF757122C5E6D206C726C34AC132
:10244C00CEDED2DCD6DADAD8DED6E2D4EAD0EECEE4
:10245C003284B68C39E1896401499384A41881498A
:10246C00930A5002130A0003254BA94B834704001F
:10247C00130D1400A30FF10085E7BA402A449A44C7
:10248C000A49665AD65A465BB65B265C965C065D74
:10249C00F64D4E85F65949618280AA842E89C1B7C2
:1024AC00638C57014A8685451305F1018294668C2D
:1024BC006A84AA99E28C5DBF034714009307240039
:1024CC00528DA30FE100631E47073E84814681476E
:1024DC0001A8B38777030347040005048546B29728
:1024EC00130607FD9375F60FE375BBFE99C2A30F98
:1024FC00E100E146BE8D63D3F600B68D9306C006AF
:10250C0001466318D7000347040005460504A30FD2
:10251C00E1008346F101130740066383E606636519
:10252C00D70293078005638EF60893073006638BFA
:10253C00F60AA1D64A8685451305F1018294668C6C
:10254C008DBF130D000251B713075007638AE602C3
:10255C00130780076387E60613073007E39CE6FC46
:10256C00138C4C0083AC0C003EC666855D3DB247B7
:10257C00AA856356F0083818EE866A8666851DA013
:10258C00138C4C0015C69386B6F8181093B616002B
:10259C0003A50C000146A945A9393818EE866A86B0
:1025AC00AA850810813EAA854A862818829411B7FC
:1025BC009307500718106394F6008546D1BF8146E7
:1025CC00C1BF03A50C00138686FA18108546133676
:1025DC001600C1453939138C4C00AA853818EE8683
:1025EC006A86C1B783A70C00138C4C003818A30F54
:1025FC00F100EE866A8685451305F10165B74A86BA
:10260C0066856DB7397132D42A8609652ED236D6D5
:10261C00814554101305C50F06CE3AD83EDA42DC7C
:10262C0046DE36C6013DF240216182802A96AA8799
:10263C006393C70082802380B7008507D5BF79716B
:10264C00380083C5C1C006D622D481473A8513060B
:10265C00F00F21489386C1C4BE9683C606000D07B1
:10266C00B386B602B3C6C602A30ED7FE938641C488
:10267C00BE9683C60600B386B602B3C6C602230F47
:10268C00D7FE9386C1C3BE9683C606008507B38664
:10269C00B602B3C6C602A30FD7FEE39D07FB138693
:1026AC0081CB0147138481CBFD586148B307E5000A
:1026BC0003C30700B2859D46B357D340858BFD17E6
:1026CC00B59B93876702FD162390F5008905E3956A
:1026DC0016FF05074106E31B07FD1306800781451E
:1026EC00138581E3A13737070240544FB7070040E9
:1026FC00F99A54CF9306000254C39306C00F14D317
:10270C0000D7544F93E6160054CF8546239AD70032
:10271C001C4393F70702EDDFB250225493070002DB
:10272C005CC345618280411122C483C781C306C644
:10273C0026C2FD1793F7F70F15476362F72E0D6747
:10274C008A071307C771BA979C43828783D8E1C263
:10275C008D47014813F5F80FB307F50293024005B6
:10276C009303900A7554F954214E93F7F70F63EBCA
:10277C00A20493C6F7FF93F6F60F3E8601479385A6
:10278C0041C4C2952380D5009386C1C4C2962380D0
:10279C00C6009386C1C3C29613050502938707062C
:1027AC002380E60005081375F50F93F7F70FE31078
:1027BC00C8FD938748002397F1C22244B24092444B
:1027CC004101B5BD63ECA3003386F44013871700B9
:1027DC001376F60F1377F70F814655B793862700BC
:1027EC003307F44093F6F60F1377F70F014641BF0A
:1027FC0083D5E1C293978501E18713F7F50F63C782
:10280C00070606079377F70F03C6C1C283C6B1C28A
:10281C0003C7A1C23306F6021305F00FA148B38615
:10282C00F602B307F70201473346A602B3C6A60267
:10283C001376F60FB3C7A70293F6F60F93F7F70FBD
:10284C00138541C43A952300C5001385C1C43A953C
:10285C002300D5001385C1C33A952300F500050765
:10286C00E31017FF91052397B1C281BF9307F00FB7
:10287C00998F860793F7F70F41BF03CFC1C203D7D8
:10288C00E1C283CFB1C283C2A1C28D438147A148AB
:10289C00B306F700B3E6760295EA7A887E859685CC
:1028AC00938641C4BE96238006019386C1C4BE960E
:1028BC002380A6009386C1C3BE962380B6008507ED
:1028CC00E39817FD05072397E1C2C5BD01480145F3
:1028DC008145F9B703D7E1C225463376C70283CFCA
:1028EC00C1C283C2B1C283C3A1C28147214363DB8E
:1028FC00C702FE8816881E85938641C4BE96238027
:10290C0016019386C1C4BE96238006019386C1C36B
:10291C00BE962380A6008507E39B67FC05072397DB
:10292C00E1C261BD814801480145F9B703CFC1C27D
:10293C0083CFB1C203A781C083C2A1C28146A14883
:10294C009317D7003D8F93571701B98F13975700E3
:10295C003D8F9D8B95CF014801458145938741C49F
:10296C00B697238007019387C1C4B6972380A7002D
:10297C009387C1C3B6972380B7008506E39216FDF3
:10298C0023A4E1C083D7E1C285072397F1C235B5F3
:10299C007A887E859685D9B703D8E1C203D781C2E0
:1029AC006369E800014681450145A532238C01C2CB
:1029BC0029B5B3070741AA07B3D7E70203C6C1C2BB
:1029CC0083C6B1C203C7A1C2A148B387F702A983CA
:1029DC003306F602B386F60229821376F60FB30796
:1029EC00F702A98293F6F60F0147A98393F7F70F25
:1029FC00938541C4BA952380C5009385C1C4BA950B
:102A0C002380D5009385C1C3BA952380F5000507B3
:102A1C00E31017FF930718002397F1C279BBB2405C
:102A2C00224492444101828083C761C24147636D55
:102A3C00F7000D678A0713074773BA979C43411138
:102A4C0006C622C426C282871307100B6388E722AE
:102A5C00636AF70213070002638EE7181307000B73
:102A6C006397E722B7576B6E37270020938747F59C
:102A7C002328F77EB707EFBE37E700E093870708F8
:102A8C003CC701A01307000F6385E71E8280EFF09F
:102A9C00FF8A014681450145EFF0BF872244B240D1
:102AAC009244410169BEEFF07F89938701CA03C646
:102ABC00270083C5170003C50700F9BFEFF01F8877
:102ACC00938701CA83C607001D47636DD71A03C6D7
:102ADC001700138741C436972300C70003C627008D
:102AEC001387C1C436972300C70083C737001387E9
:102AFC00C1C336972300F70055B703C701CA238615
:102B0C00E1C069BFEFF09F83938701CA014721465B
:102B1C0083C50700938641C4BA962380B60083C54B
:102B2C0017009386C1C4BA962380B60083C52700CC
:102B3C009386C1C3BA962380B60005078D07E319A7
:102B4C00C7FCA9BFEFF08FFF938701CA03C84700EA
:102B5C0003C46700238601C103C7070083C657005F
:102B6C0003C5170083C5270003C63700B70700400D
:102B7C0083D447422204558CA294C2049307F00FCD
:102B8C00C1806317F702EFF0CFF8E30904F09387E5
:102B9C0001C9014785452146938601C3BA96239006
:102BAC0097002380B60005078907E317C7FEFDB51C
:102BBC009D47E3E5E7EE938741C4BA972380A700CE
:102BCC009387C1C4BA972380B7009387C1C3BA97C0
:102BDC002380C700E30404EC93161700938701C904
:102BEC00B69723909700938701C3BA970547238024
:102BFC00E7006DB5938701CA83C607001546138796
:102C0C00F6FF1377F70F6364E60803C6270023A8C3
:102C1C0001C2138701C323220700238CD1C2238650
:102C2C00C1C203C63700A385C1C203C6470083C710
:102C3C0017002385C1C2239701C219466395C602AA
:102C4C0091E3F9479306803E2392D1C01307C0034A
:102C5C00B387E7022394F1C2B707004003D747427A
:102C6C002392E1C2C9B499E3930780022392F1C085
:102C7C00E5B78D45138581C16FF06FED91451385D7
:102C8C0041C1DDBFB2402244924441018280828026
:102C9C00B717024098432971C166558F232E111224
:102CAC00232C8112232A911223282113232631133A
:102CBC00232441132322511323206113232E71113A
:102CCC00232C8111232A911198C337E7160013077F
:102CDC0007363AC632479306F7FF36C611C79843F4
:102CEC009316E700E3D806FEB717024098439316F5
:102CFC00E70063DD0606B72602409842619B136726
:102D0C00170098C24167D8C39843B7060001558F86
:102D1C0098C337E71600130707363AC632479306AF
:102D2C00F7FF36C611C7984393166700E3D806FE23
:102D3C00371702401C439396670063D906025C4325
:102D4C002146F19B93E727005CC3B7E716009387F6
:102D5C0007363EC6B2479386F7FF36C689C75C4333
:102D6C00B18BE399C7FEB7170240DC43130720333E
:102D7C00239EE1C4B7F5FF1F37F7FF1F9387C1C52B
:102D8C001307877E11689385457F034607009306DA
:102D9C004886A38107001375F60011823695B2960A
:102DAC000345050083C60600A38207002382A70003
:102DBC002381D70005079107E319B7FCB717024029
:102DCC00D843B70640FFFD16758FD8C3984F3716FA
:102DDC00F0FF7D161367470098CF37170140130794
:102DEC0007805443F18E37260200D18E54C3B706A8
:102DFC00001814CB984FB70680001367570098CF74
:102E0C001147D8CBD84F558FD8CFB7670040938791
:102E1C0007C00547B8C323A0070402C41307703EBC
:102E2C00A2476358F728B7670040938707C023A8C9
:102E3C000704938701FB9387071005470946FD5646
:102E4C0037690040A16B90CBD8CB94CFD8CF93846B
:102E5C0001FB13040008130C001C8D6CBA89368A14
:102E6C00938B0B40B28A130B0904637B8C00A285F5
:102E7C00130404FC13858C774204EFF0AFF8418007
:102E8C0083A704111387F7FF63E9E92213171400D2
:102E9C002395E41223208900232209006381572300
:102EAC00130404044204418041099104E31F69FBAB
:102EBC00B747024093870780984371761306F6B79D
:102ECC001367270098C3B76700402967938707C02B
:102EDC00130707C0B8C323A207044147B7E700E0B4
:102EEC0023A2E710371702405C4F854493E7270075
:102EFC005CCFB70700402394C7427D562396C74248
:102F0C00130600082390C740239A974003D6074026
:102F1C00130A0101458E2390C740544F45767D1608
:102F2C00C58E54CF544BC58E54CB144F93E65600DC
:102F3C0014CFB7160140938606809842718F2D6688
:102F4C00518F98C2239407021307B0032396E7020C
:102F5C002390070403D7C701996651461377F70FDF
:102F6C00558F239EE70003D707028566B285558FE0
:102F7C002390E70203D70700938607043285136773
:102F8C0007082390E70003D7C700136707102396A1
:102F9C00E70037070240232E070054D38966938637
:102FAC00065954CF03D70700458F2390E700EFF065
:102FBC004FB6EFF0CFE837C5DB00130505A0EFF0F7
:102FCC002FA0014681450145EFF0AFB4EFF02FE79C
:102FDC0083D761C503D481C59395070113160401EA
:102FEC001D8C4204C1814182418001479317070126
:102FFC00C18363EF870C239BC1C403C741C501CBBD
:10300C00238A01C44147B7E700E023A2E710814AB5
:10301C0093970A01C18363EB870CB707004003D475
:10302C00474242044180138701C3938601C98147FB
:10303C0081452145034607001DCA03D60600330609
:10304C00C440131E060163440E021386C1C33E9690
:10305C00230006001386C1C43E9623000600138687
:10306C0041C43E96230006002300070085458507D2
:10307C0005078906E390A7FC99C1EFF04FDC83C7E5
:10308C0081C395C383D741C283D641C01D8C4204F2
:10309C0013960601418441866347C400B697239278
:1030AC00F1C2EFF04FE83165130505B8EFF04F9121
:1030BC0005B7A24785073EC4A5B3E39747DF93172F
:1030CC0014002396F4122324890023267901C9BB0A
:1030DC00AE97938601EB93F7F70FB69783C707006C
:1030EC003308EA0005072300F80009B703A701C25B
:1030FC00B3075A0183C707002DE32383F1C2A38EC4
:10310C0001C04147636FF7000D678A071307C77942
:10311C00BA979C4382871147238EE1C023A091C2AA
:10312C0031A81307100B636DF7001307F00A636DDA
:10313C00F700930600021547E380D7FE850AC9BD48
:10314C001307000FE39CE7FE238E01C0EFF0DF8D29
:10315C00F5B76147D1B71D47C1B703C6D1C1938637
:10316C0001CAB2962380F6001307160083C7C1C1AB
:10317C001377F70FA38EE1C0E362F7FCEFF0DF8A61
:10318C0023A001C265BF0D4741BF054771B71D7133
:10319C00A6C4B7640040938404C052CE03AA44046E
:1031AC003ED886CE96CC9ACA9EC8A2C6AAC2AEC03B
:1031BC0032DE36DC3ADA42D646D44AD24ED056CC3F
:1031CC005ACA72C876C67AC47EC293170A0163D8EB
:1031DC0007109379FA0093972900BE9403A9040071
:1031EC0013170901635C0728138401FB63980940DA
:1031FC0013174901635407400355C41221469385A4
:10320C0001FCEFF00F8B0357040183552401034697
:10321C000401935687002207558F2398E1FA035730
:10322C004401835664012326040042074D8F231169
:10323C00D40058C093750606834714016399053270
:10324C0029466366F61E0D668A071306067EB2973C
:10325C009C43828791679387878791659043631D11
:10326C00E60483AA470003CA87002326540163D3CC
:10327C004601368A131B0A01135B0B0123116401EF
:10328C009307000463D347013E8A0355A412D685E5
:10329C005286EFE01FFFB767004023A2470193055A
:1032AC0000030145D29AEFF0EF8523265401330B2E
:1032BC004B41231164016DAAB1071386058CE39F62
:1032CC00C7F8C1450145EFF0EF8385650145EFF087
:1032DC00EF831379F970B767004023A027C1937768
:1032EC000A40E1C3B7670040938707C01307F0BFDC
:1032FC00F8C323A80704138701FB23020712231426
:10330C000700A305070023A00700A302071205442A
:10331C00C0C323030712894694C7A30307120D47A2
:10332C00D8C713060020930500600145EFE05FFB52
:10333C000D66B2850145EFE0BFFA13060002930556
:10334C0000030145EFE0DFF9138901FB9149832468
:10335C0049118DCC0146930500602285EFE05FF8A2
:10336C00B7670040938707C0131724003E971C4390
:10337C00C19BC18F1CC3FD576399F4348D652285A5
:10338C00EFE0DFF881452285EFE0DFF70504110956
:10339C00E31F34FBB7670040938707C0130700088F
:1033AC00F8C793174A0163D20702B76700407D77CD
:1033BC00938707C01307F77FF8C3938701FB03C7F5
:1033CC00A700136727002385E70093173A0163D002
:1033DC000702B76700407D77938707C07D17F8C356
:1033EC00938701FB03C7A700759B2385E7009377A1
:1033FC000A1081CBB7670040938707C01307F0EF23
:10340C00F8C393770A2081CBB7670040938707C036
:10341C001307F0DFF8C393172A0163DE070EB767B3
:10342C000040938707C07977EDA0A304E400B76749
:10343C00004023A20700930500036DAA85472304CF
:10344C00E400A305F400E5B70355A41209469385DF
:10345C0001FC23180400EFE0DFE2B76700400947E6
:10346C00D8C3930500030145EFE0DFE92311040005
:10347C009C4093F7F77093E707089CC013790908F1
:10348C0063040908938701FBCE97238207121384E8
:10349C0001FB63950906034704009547631BF7007E
:1034AC0003479400B7670040938707C0136707086A
:1034BC00F8C78359240063850920930700044E89BB
:1034CC0063F337013E89032AC4000355A412420951
:1034DC0013590901D2854A86EFE0BFDAB76700407D
:1034EC0023A227019305000301454A9AB389294178
:1034FC00EFE05FE123264401231134019C40216756
:10350C0093F7F770D98F9CC0B7670040938707C0BB
:10351C0061777D17F8C33644F640E6425643C643FE
:10352C00A644164586457256E2565257C257325833
:10353C00A25812598259724AE24A524B424EB24E2A
:10354C00224F924F2561730020302308040003554D
:10355C00A4120546938501FCEFE0BFD2B76700408B
:10356C000547FDBD834784002308F400CDB71377CE
:10357C00060219CB130710026383E7026368F70096
:10358C0013070002638BE700014A19A89387E7FD34
:10359C0093F7F70F0547E369F7FEE38406D2368A03
:1035AC006206618663500604131B0A01135B0B0150
:1035BC00231164019307000463D347013E8A03552A
:1035CC00A4125286938501FCEFE0BFCBB767004095
:1035DC0023A24701930500030145EFE0BFD2232648
:1035EC004401F1B1E38506E48D650145EFE01FD29E
:1035FC00930500020145EFE0FFD09DBD9386370097
:10360C008A06376700403697832A0700139A6900A9
:10361C00A297410A03D5C71293FAFA3F229A56860B
:10362C00D285EFE01FC9639509028357240081CF2F
:10363C0023110400B767004023A207009305000381
:10364C000145EFE03FCC8D650145EFE03FCC0DB57A
:10365C0089476397F90483D781C50147C207C183A2
:10366C00B386E700C206C182634F5703D697C207E1
:10367C00C183239CF1C403D761C5998FC20713077B
:10368C000010C183B307F7401307F003634AF70038
:10369C00B7E700E0414723A2E7180547238AE1C4B6
:1036AC008D654E855DB7138601EB93F6F60FB296DA
:1036BC003306EA000346060005072380C6004DB713
:1036CC008D650145EFE09FC415BD8547E390F4CCB3
:1036DC0081452285EFE09FC3930500026DB1000088
:1036EC0018036E006F006B006E006F006B00200003
:1036FC004C00450044007300000000000E036E00F7
:10370C006F006B006E006F006B0000000403090477
:10371C0058270000FC27000086280000E028000045
:10372C0038290000A42900009A2A0000B22A0000BF
:10373C00C82A0000062B0000102B0000A82A00004D
:10374C00902C0000902C0000902C0000902C00007D
:10375C00902C0000902C0000902C0000902C00006D
:10376C00902C0000902C0000502B00004352495428
:10377C004943414C3A205553424420504D41204F2F
:10378C00564552464C4F5720282564290A00000004
:10379C0054310000923100002231000096310000BB
:1037AC005E31000054310000483100004831000007
:1037BC004831000048310000483100004831000019
:1037CC004831000048310000483100004831000009
:1037DC0062310000543400003A3400003A340000E6
:1037EC003A3400003A3400003634000060320000F5
:1037FC003A340000703500004834000056350000A3
:10380C000902430002010080320904000001020297
:10381C00010005240010010524010001042402020A
:10382C00052406000107058103400001090401007D
:10383C00020A00000007050202400000070583028F
:10384C0040000000120110010200004009124E4E0F
:10385C0007000102030100003031323334353637B2
:10386C003839414243444546000000000001000045
:10387C005038000012000000000200000C3800005C
:10388C004300000000030000183700000400000093
:10389C0001030904083700000E00000002030904AC
:1038AC00EC36000018000000030309045800002047
:0438BC0032000000D6
:1038C000280000000DF0A5A5FF000000000000008A
:0838D000010108024E4E040044
:0400000300002000D9
:00000001FF
