:100000006F00201F000000007E0200007C02000044
:10001000000000007C020000000000000000000062
:100020007C0200007C0200000000000000000000D4
:100030007C020000000000007C02000000000000C4
:100040007C0200007C0200007C0200007C020000B8
:100050007C0200007C0200007C0200007C020000A8
:100060007C0200007C0200007C0200007C02000098
:100070004C0C00007C0200007C0200007C020000AE
:100080007C0200007C0200007C0200007C02000078
:100090007C0200007C0200007C0200007C02000068
:1000A0007C0200007C0200007C0200007C02000058
:1000B0007C0200007C0200007C0200007C02000048
:1000C0007C0200007C0200007C0200007C02000038
:1000D0007C0200007C0200007C0200007C02000028
:1000E0007C0200007C0200007C0200008C02000008
:0C00F0007C0200007C0200007C0200008A
:1000FC0037F800E0032788008327C800B305E50024
:10010C0033B5A5003E95032688008326C800330727
:10011C00B6403337E600B387A640998FE3C507FE98
:10012C008280938541E4938605100545C8CA37073C
:10013C0000500346C700938741E413660604230668
:10014C00C7007D5690CE0346D70013668600A306E3
:10015C00C700C8CE8346D70093E60604A306D70093
:10016C00BA86138741E598CA138741E9D8CA138721
:10017C0041ED98CE138741F1D8CE3687A946230995
:10018C00D702A146A309D7028946230BD702A38223
:10019C000512A30D070203A7C71123830712635986
:1001AC00E00037070050230FD702A3830712828089
:1001BC006DDF37070050A30F0702C5BF8147A1466B
:1001CC001387C1C13E972300A700138741C23E97F6
:1001DC002300B700138741C13E972300C700850752
:1001EC00E390D7FE8280970100209381A1201721F4
:1001FC00002013016160138541C1938501F763777A
:10020C00B500232005001105E36DB5FE17150000A0
:10021C001305C5B9938541C0138641C1638AC500D6
:10022C008322050023A0550011059105E3EAC5FEC4
:10023C0093070000FD42739002BC8962938282880E
:10024C0073A00230AD4273904280970200009382FB
:10025C00A2DA93E2320073905230B7F700E0154700
:10026C0098C385679387279B73901734730020304E
:10027C0001A0371702401C47B7068000D58F1CC75A
:10028C001D71A2C63704005032DE035664003ED8FE
:10029C0086CE96CC9ACA9EC8A6C4AAC2AEC036DC7C
:1002AC003ADA42D646D44AD24ED052CE56CC5ACA5C
:1002BC005EC872C676C47AC27EC093772600638B02
:1002CC0007589354C640135886408D8889459377B8
:1002DC00F8006387B4040D476386E426638B04142B
:1002EC00B707005009472383E7003644F640E6423F
:1002FC005643C643A644164586457256E256525797
:10030C00C2573258A25812598259724AE24A524B79
:10031C00C24B324EA24E124F824F256173002030D9
:10032C00A9CF1376C8004DFEB7060050938626035E
:10033C001397270036978346070093C64600230081
:10034C00D7008D466392D70237070050231E070251
:10035C008346E70393F6C60F230FD702138741E4B6
:10036C00BA9723820712ADBF8346070093F6C60FD8
:10037C0093E626002300D700D5B7938741E483D7B3
:10038C002700138441E491E7B70700501147A38974
:10039C00E7028329C40023040412638809048354EC
:1003AC00240093070004268963F397003E894209D1
:1003BC0013590901B3842441C2044A86CE8513859E
:1003CC0041E5C180052F23119400814799C0B38763
:1003DC0029015CC4B70700502398270303C72703E0
:1003EC00134747002389E702E5BD8347140093F7C1
:1003FC00070699CF83572400E38407EE03470400D4
:10040C008547E30FF7ECB707005023980702F9B7BD
:10041C00034704009547E315F7ECB706005003C7F4
:10042C0036008347940013770708D98FA381F60011
:10043C0045BD03298400BDE393171601E3D207EAF7
:10044C00938741E403C70700A546138441E4630B7B
:10045C00D70223110400930700026318F7001D460E
:10046C0093050401138581C071258307140063C5AE
:10047C00070085472304F412B7070050239807029E
:10048C0031478DB783D72700EDD3B707005003C78B
:10049C00370313474700A389E70299B5B706005005
:1004AC00938636031397270036978346070093C627
:1004BC0046002300D700E395B7E2138441E4854955
:1004CC00E3D024E303A701C38347040939E7A387D7
:1004DC00F1C2238701C215476365F702FD1793F735
:1004EC00F70F0D476363F70205678A071307C7CC3D
:1004FC00BA979C4382879147A386F1C223A831C344
:10050C0001A81307000F6395E700A38601C2092514
:10051C008504050475B7E147C5B703C6E1C29386E8
:10052C00C1E2B296130716002380F60083C7D1C22E
:10053C001377F70F2387E1C2E36CF7FCD12B23A8C9
:10054C0001C2F9B7B706005039472389E602A389DF
:10055C00E602938541E403D7050183D8450183D98D
:10056C006501135587002207498F03D5250103C95F
:10057C0005012392E1E413970801498F83C6150105
:10058C0023913501D8C193750906CE84138441E4B7
:10059C00CDC9811593F5050CF5E19377090299CB3B
:1005AC00930710026385F60863EED70093070002E9
:1005BC006380F606370700509D472309F702A3090D
:1005CC00F70239BB9386E6FD93F6F60F8547E3E316
:1005DC00D7FE23110400814493178901E18763C579
:1005EC00070083572400B1EB9307000463D39700F3
:1005FC00BE84C204B7070050C180239897021147EC
:10060C002389E70283572400858F2311F400C9B98D
:10061C00E38109FC032AC400E3000AFCD2854E8660
:10062C00138541E54E9AF9212326440175B793872A
:10063C0081C05CC4E39009FEB5BFB70700501147F9
:10064C0099BDAD45E3E8D5F60565939526001305F0
:10065C00C5CDAA958C41828585679387C7D685655C
:10066C0090436319E604D84383C78700138341E49E
:10067C0058C463D3F900CE872311F3009317890173
:10068C00E18763D1071C9307000463D39700BE84F2
:10069C00C204B7070050C180239897029947638E14
:1006AC00F61883572400858F2311F400B7070050E8
:1006BC0011470DBBB107138645DBE393C7FADDBDCC
:1006CC00A304E40065BF834784002308F400854736
:1006DC00E3F637FB2311F40055B78547A305F40067
:1006EC002304E400B707005003C777031377B70F51
:1006FC00A38BE702B707005003C767031377B70F45
:10070C00238BE702B707005003C7B7031377B70F64
:10071C00A38DE702B707005003C7A7031377B70FE2
:10072C00238DE702B707005003C7F7031377B70F02
:10073C00A38FE702B707005003C7E7031377B70F80
:10074C00238FE70225BF9375F9010946E394C5E6AB
:10075C001376F70FE31006E61376C800E31C06E4E5
:10076C0013F70808E30807E4138747040A072297DE
:10077C0010437D57E310E6E4370700508A07130750
:10078C002703BA972380B700D5BD9375F9010945A6
:10079C00E392A5E21377F70FE31E07E01357A600C9
:1007AC000D8BE31D07EC13F70808E30507E013872F
:1007BC0047040A07229710437D57E31DE6DE3707EF
:1007CC000050130727038A07BA9703C7070013675C
:1007DC0037002380E7005DB523080400E35030EBBD
:1007EC00854469BD231804009375F901B1C109450D
:1007FC00E392A5DC1376C800E31E06DA13F70808AB
:10080C00E30A07DA138747040A07229710437D5738
:10081C00E312E6DA370700508A0713072703BA9763
:10082C0083C707008D8BF51793B717002308F400C7
:10083C008947E3D537E5BE8491B5B70700502389C6
:10084C00070279BCB707005081E4239807028DB5E5
:10085C00314791B19377160091CB23A601E4A30104
:10086C000400C13085472303F40041B4937746005C
:10087C009DC791472303F4001305005AEFF05F87DF
:10088C0083465400138741E4918A8347A70091C69D
:10089C0093E727002305F70089BCF59BE5BF937709
:1008AC00F60FD1B78D4789B98547B9B12A96AA8772
:1008BC006393C70082802380B7008507D5BF797109
:1008CC00380083C541C006D622D481473A85130629
:1008DC00F00F2148938641C2BE9683C606000D07D1
:1008EC00B386B602B3C6C602A30ED7FE9386C1C1A9
:1008FC00BE9683C60600B386B602B3C6C602230FE5
:10090C00D7FE938641C1BE9683C606008507B38683
:10091C00B602B3C6C602A30FD7FEE39D07FB03C7FF
:10092C00C1C275FF05472386E1C2138641C3014747
:10093C00138441C3FD586148B307E50003C30700A6
:10094C00B2859D46B357D340858BFD1793F777FC43
:10095C0093873707FD162390F5008905E39416FF5E
:10096C0005074106E31A07FD130680078145138529
:10097C0041DB2D3FB7070240D84F93060002B2501F
:10098C00799BD8CFD4C31307C00F98D380D7D84F37
:10099C00225413671700D8CFB70700400547239A96
:1009AC00E70045618280411122C4371402405C4C3F
:1009BC0006C626C293E717005CCC5C48371701408B
:1009CC001307078093E717005CC81C4CC576FD160F
:1009DC0093E757001CCC1C43B7E400E05146F58F5D
:1009EC00AD66D58F1CC3B7070040239407021307CD
:1009FC00300B2396E7022390070403D7C7019966AF
:100A0C00B2851377F70F558F239EE70003D70702A4
:100A1C0085663285558F2390E70203D707009386AE
:100A2C000704136707082390E70003D7C700136771
:100A3C0007102396E70037070240232E070054D3F4
:100A4C0089669386265954CF3707001023A0E410EB
:100A5C0003D70700136717002390E700EFF00FF69A
:100A6C00B93D37359302130505E0EFF06FE8014609
:100A7C0081450145EFF08FF499355C40370740FF15
:100A8C007D17F98F37078000D98F5CC01C4C056728
:100A9C00050793E797001CCC5C481305005AD98FC7
:100AAC005CC83704005099472300F400230004006D
:100ABC00EFF00FE49D472301F400A301040093071A
:100ACC0090022300F400FD572303F400EFF06FE5D0
:100ADC00930710F8A300F400B707000823A2F41042
:100AEC0037F700E0832707D1DD9B2328F7D073006D
:100AFC005010CDBF81476313F60082803387F50019
:100B0C00834607003307F50085072300D700E5B7B8
:100B1C0083C7F1C215476361F7024111FD1706C681
:100B2C0093F7F70F1147636EF70005678A071307F2
:100B3C0087CBBA979C4382871307000F6384E70A1D
:100B4C008280014681450145EFF04FE7B2404101FB
:100B5C00BDB39387C1E203C6270083C5170003C545
:100B6C000700DDB79387C1E283C607001D476365A5
:100B7C00D70C03C617001387C1C136972300C700D3
:100B8C0003C62700138741C236972300C70083C7CB
:100B9C003700138741C136972300F70045BF03C7C1
:100BAC00C1E22382E1C05DB79387C1E201472146D0
:100BBC0083C507009386C1C1BA962380B60083C54E
:100BCC001700938641C2BA962380B60083C52700CE
:100BDC00938641C1BA962380B60005078D07E319A9
:100BEC00C7FCADB71567938741E41307E7E4239877
:100BFC00E70411472389E70403C7871229E303C7D6
:100C0C00571215EF03D727001DEB37E600E0B705A9
:100C1C0000082322B618370700508D46231AD70236
:100C2C008346670393F6C60F230BD7020547A382AF
:100C3C00E7122322B6108280B2404101828082806A
:100C4C0041113AC6370702403EC41C4393F70702D2
:100C5C0091C7930700025CC3238601C23247A247A7
:100C6C0041017300203000001203300030003000CE
:100C7C0030003000300030003100000018036E00EE
:100C8C006F006B006E006F006B0020004C00450085
:100C9C0044007300000000000E036E006F006B0038
:100CAC006E006F006B000000040309045E0B000073
:100CBC00700B0000AA0B0000B40B0000580B0000D6
:100CCC00B008000002050000B40800002205000076
:100CDC00F007000052070000C00500009607000056
:100CEC00C0050000CC06000064060000C005000032
:100CFC00D2060000E6060000E407000088060000AB
:100D0C0009024B000201008032080B0002020201B2
:100D1C000009040000010202010005240010010575
:100D2C0024010001042402020524060001070583A6
:100D3C00030800FF09040100020A000000070581F6
:100D4C0002400000070502024000000012011001E1
:100D5C000200004009124E4E000101020301000086
:100D6C0000010000580D00001200000000020000FD
:100D7C000C0D00004B00000000030000B40C000040
:100D8C000400000001030904A40C00000E00000084
:100D9C0002030904880C0000180000000303090476
:080DAC00740C000012000000AD
:100DB400FF00000000C20100000008000000000065
:00000001FF
