:100000006F00201F000000007E0200007C02000044
:10001000000000007C020000000000000000000062
:100020007C0200007C0200000000000000000000D4
:100030007C020000000000007C02000000000000C4
:100040007C0200007C0200007C0200007C020000B8
:100050007C0200007C0200007C0200007C020000A8
:100060007C0200007C0200007C0200007C02000098
:10007000C20C00007C0200007C0200007C02000038
:100080007C0200007C0200007C0200007C02000078
:100090007C0200007C0200007C0200007C02000068
:1000A0007C0200007C0200007C0200007C02000058
:1000B0007C0200007C0200007C0200007C02000048
:1000C0007C0200007C0200007C0200007C02000038
:1000D0007C0200007C0200007C0200007C02000028
:1000E0007C0200007C0200007C0200008C02000008
:0C00F0007C0200007C0200007C0200008A
:1000FC0037F800E0032788008327C800B305E50024
:10010C0033B5A5003E95032688008326C800330727
:10011C00B6403337E600B387A640998FE3C507FE98
:10012C008280938541E4938605100545C8CA37073C
:10013C0000500346C700938741E413660604230668
:10014C00C7007D5690CE0346D70013668600A306E3
:10015C00C700C8CE8346D70093E60604A306D70093
:10016C00BA86138741E598CA138741E9D8CA138721
:10017C0041ED98CE138741F1D8CE3687A946230995
:10018C00D702A146A309D7028946230BD702A38223
:10019C000512A30D070203A7C71123830712635986
:1001AC00E00037070050230FD702A3830712828089
:1001BC006DDF37070050A30F0702C5BF8147A1466B
:1001CC001387C1C13E972300A700138741C23E97F6
:1001DC002300B700138741C13E972300C700850752
:1001EC00E390D7FE8280970100209381A1201721F4
:1001FC00002013016160138541C1938501F763777A
:10020C00B500232005001105E36DB5FE17150000A0
:10021C00130505C1938541C0138641C1638AC5008E
:10022C008322050023A0550011059105E3EAC5FEC4
:10023C0093070000FD42739002BC8962938282880E
:10024C0073A00230AD4273904280970200009382FB
:10025C00A2DA93E2320073905230B7F700E0154700
:10026C0098C385679387279A73901734730020304F
:10027C0001A0371702401C47B7068000D58F1CC75A
:10028C001D71A2C63704005032DE035664003ED8FE
:10029C0086CE96CC9ACA9EC8A6C4AAC2AEC036DC7C
:1002AC003ADA42D646D44AD24ED052CE56CC5ACA5C
:1002BC005EC872C676C47AC27EC093772600638C01
:1002CC0007589354C640135886408D8889459377B8
:1002DC00F8006387B4040D476387E426638C041429
:1002EC00B707005009472383E7003644F640E6423F
:1002FC005643C643A644164586457256E256525797
:10030C00C2573258A25812598259724AE24A524B79
:10031C00C24B324EA24E124F824F256173002030D9
:10032C00A9CF1376C8004DFEB7060050938626035E
:10033C001397270036978346070093C64600230081
:10034C00D7008D466392D70237070050231E070251
:10035C008346E70393F6C60F230FD702138741E4B6
:10036C00BA9723820712ADBF8346070093F6C60FD8
:10037C0093E626002300D700D5B7938741E483D7B3
:10038C002700138441E491E7B70700501147A38974
:10039C00E7028329C40023040412638909048354EB
:1003AC00240093070004268963F397003E894209D1
:1003BC0013590901B3842441C2044A86CE8513859E
:1003CC0041E5C180EF00E07A23119400814799C088
:1003DC00B38729015CC4B70700502398270303C7D0
:1003EC002703134747002389E702DDBD8347140029
:1003FC0093F7070699CF83572400E38307EE03474F
:10040C0004008547E30EF7ECB7070050239807026A
:10041C00F9B7034704009547E314F7ECB70600500F
:10042C0003C736008347940013770708D98FA3813D
:10043C00F6007DB503298400BDE393171601E3D1C3
:10044C0007EA938741E403C70700A546138441E4F8
:10045C00630BD70223110400930700026318F70003
:10046C001D4693050401138581C0212783071400C1
:10047C0063C5070085472304F412B707005023987F
:10048C00070231478DB783D72700EDD3B70700504C
:10049C0003C7370313474700A389E70291B5B70693
:1004AC000050938636031397270036978346070030
:1004BC0093C646002300D700E394B7E2138441E4CB
:1004CC008549E3DF24E103A701C38347040939E726
:1004DC00A387F1C2238701C215476365F702FD1795
:1004EC0093F7F70F0D476363F70205678A07130746
:1004FC0007D4BA979C4382879147A386F1C223A85D
:10050C0031C301A81307000F6395E700A38601C24E
:10051C00BD2D8504050475B7E147C5B703C6E1C217
:10052C009386C1E2B296130716002380F60083C7A8
:10053C00D1C21377F70F2387E1C2E36CF7FC812D4F
:10054C0023A801C2F9B7B706005039472389E60240
:10055C00A389E602938541E403D7050183D84501BD
:10056C0083D96501135587002207498F03D52501CF
:10057C0003C905012392E1E413970801498F83C64F
:10058C00150123913501D8C193750906CE841384C6
:10059C0041E4CDC9811593F5050CF5E1937709027A
:1005AC0099CB930710026385F60863EED700930787
:1005BC0000026380F606370700509D472309F702B7
:1005CC00A309F70231BB9386E6FD93F6F60F854738
:1005DC00E3E3D7FE23110400814493178901E187DB
:1005EC0063C5070083572400B1EB9307000463D362
:1005FC009700BE84C204B7070050C18023989702AD
:10060C0011472389E70283572400858F2311F400B7
:10061C00C1B9E38109FC032AC400E3000AFCD285BA
:10062C004E86138541E54E9AA9232326440175B7BE
:10063C00938781C05CC4E39009FEB5BFB707005037
:10064C00114799BDAD45E3E8D5F6056593952600B0
:10065C00130505D5AA958C4182858567938707DE9E
:10066C00856590436319E604D84383C787001383D9
:10067C0041E458C463D3F900CE872311F3009317D8
:10068C008901E18763D1071C9307000463D39700AA
:10069C00BE84C204B7070050C180239897029947C3
:1006AC00638EF61883572400858F2311F400B70747
:1006BC00005011470DBBB107138685E2E393C7FACF
:1006CC00DDBDA304E40065BF834784002308F40068
:1006DC008547E3F637FB2311F40055B78547A3058F
:1006EC00F4002304E400B707005003C77703137723
:1006FC00B70FA38BE702B707005003C76703137745
:10070C00B70F238BE702B707005003C7B703137764
:10071C00B70FA38DE702B707005003C7A7031377E2
:10072C00B70F238DE702B707005003C7F703137702
:10073C00B70FA38FE702B707005003C7E703137780
:10074C00B70F238FE70225BF9375F9010946E39490
:10075C00C5E61376F70FE31006E61376C800E31C24
:10076C0006E413F70808E30807E4138747040A07AD
:10077C00229710437D57E310E6E4370700508A07B1
:10078C0013072703BA972380B700D5BD9375F901DA
:10079C000945E392A5E21377F70FE31E07E0135721
:1007AC00A6000D8BE31D07EC13F70808E30507E023
:1007BC00138747040A07229710437D57E31DE6DE93
:1007CC0037070050130727038A07BA9703C7070098
:1007DC00136737002380E7005DB523080400E3505E
:1007EC0030EB854469BD231804009375F901B1C140
:1007FC000945E392A5DC1376C800E31E06DA13F76D
:10080C000808E30A07DA138747040A0722971043FC
:10081C007D57E312E6DA370700508A0713072703E0
:10082C00BA9783C707008D8BF51793B7170023086A
:10083C00F4008947E3D537E5BE8491B5B70700507E
:10084C002389070271BCB707005081E42398070283
:10085C008DB5314791B19377160091CB23A601E466
:10086C00A30104007D3885472303F400BDBC9377B6
:10087C0046009DC791472303F4001305005AEFF07F
:10088C003F8783465400138741E4918A8347A7002E
:10089C0091C693E727002305F70081BCF59BE5BFC4
:1008AC009377F60FD1B78D4789B98547B9B12A9699
:1008BC00AA876393C70082802380B7008507D5BFC2
:1008CC007971380083C541C006D622D481473A8558
:1008DC001306F00F2148938641C2BE9683C60600CC
:1008EC000D07B386B602B3C6C602A30ED7FE938617
:1008FC00C1C1BE9683C60600B386B602B3C6C60295
:10090C00230FD7FE938641C1BE9683C6060085078A
:10091C00B386B602B3C6C602A30FD7FEE39D07FB90
:10092C0003C7C1C275FF05472386E1C2138641C3C5
:10093C000147138441C3FD586148B307E50003C365
:10094C000700B2859D46B357D340858BFD17899B15
:10095C009387A703FD162390F5008905E39516FFF1
:10096C0005074106E31B07FD130680078145138528
:10097C0041DB353FB7070240D84FB250799BD8CFF7
:10098C001307C00F98D380D7D84F22541367170082
:10099C00D8CF45618280B7170240D843411106C6B3
:1009AC0022C426C2719BD8C3D843318B75FF9843A0
:1009BC00B70600FFFD16758F98C3B7170240984312
:1009CC0093166700E3CD06FE9843C166558F98C316
:1009DC00B717024098439316E700E3DD06FEB726EF
:1009EC0002409842619B1367270098C2D843B70610
:1009FC00C1FFFD16758FB7060500558FD8C39843F8
:100A0C00B7060001558F98C3371702401C439396C5
:100A1C006700E3DD06FE5C43A146F19B93E72700EC
:100A2C005CC3B7170240D843318BE31ED7FED84FB7
:100A3C00B71601409386068013671700D8CFD84BA2
:100A4C0045767D1613671700D8CB984FB7E400E0B6
:100A5C00370400501367470098CF98421305005A8B
:100A6C00718F2D66518F98C23707004023140702EF
:100A7C00930690052316D702231007048356C7014B
:100A8C0065767D16F18E1966D18E231ED70083569E
:100A9C0007020566D18E2310D70283560700130672
:100AAC00070493E606082310D7008356C70093E685
:100ABC0006102316D700B706024023AE0600D0D28C
:100ACC00096613062659D0CEB706001023A0D41001
:100ADC008356070093E616002310D700D843B706B9
:100AEC0040FFFD16758FB7068000558FD8C3984F01
:100AFC00856685061367970098CFD84B558FD8CB52
:100B0C0099472300F40023000400EFF06FDE9D47AB
:100B1C002301F400A3010400930790022300F400C6
:100B2C00FD572303F400EFF0CFDF930710F8514685
:100B3C00A300F400B707000823A2F410B285328595
:100B4C00EFF0CFE7B53B37359302130505E0EFF037
:100B5C002FDA014681450145EFF04FE6953337F723
:100B6C0000E0832707D1DD9B2328F7D073005010BA
:100B7C00CDBF81476313F60082803387F50083462F
:100B8C0007003307F50085072300D700E5B783C7B7
:100B9C00F1C215476361F7024111FD1706C693F7C1
:100BAC00F70F1147636EF70005678A071307C7D263
:100BBC00BA979C4382871307000F6384E70A8280ED
:100BCC00014681450145EFF06FDFB2404101CDB9DF
:100BDC009387C1E203C6270083C5170003C507002E
:100BEC00DDB79387C1E283C607001D476361D70C4D
:100BFC0003C617001387C1C136972300C70003C66D
:100C0C002700138741C236972300C70083C73700DC
:100C1C00138741C136972300F70045BF03C7C1E2D4
:100C2C002382E1C05DB79387C1E20147214683C5AA
:100C3C0007009386C1C1BA962380B60083C51700FE
:100C4C00938641C2BA962380B60083C5270093864B
:100C5C0041C1BA962380B60005078D07E319C7FC7E
:100C6C00ADB7938741E403C7871229E703C757122F
:100C7C0031E303D727001DEFB7060050138741E976
:100C8C00D8CA15671307E7E42398E70411472389AB
:100C9C00E70436878D46231AD7028346670393F6FB
:100CAC00C60F230BD7020547A382E7128280B240FE
:100CBC0041018280828041113AC6370702403EC40E
:100CCC001C4393F7070291C7930700025CC323866A
:100CDC0001C23247A2474101730020301203300099
:100CEC0030003000300030003000300031000000A7
:100CFC0018036E006F006B006E006F006B0020001D
:100D0C004C00450044007300000000000E036E0010
:100D1C006F006B006E006F006B0000000403090491
:100D2C00DC0B0000EE0B0000280C0000320C000065
:100D3C00D60B0000B208000004050000B608000045
:100D4C0024050000F207000054070000C205000053
:100D5C0098070000C2050000CE06000066060000E1
:100D6C00C2050000D4060000E8060000E6070000FB
:100D7C008A06000009024B000201008032080B00B9
:100D8C000202020100090400000102020100052414
:100D9C0000100105240100010424020205240600B0
:100DAC0001070583030800FF09040100020A000083
:100DBC000007058102400000070502024000000008
:100DCC00120110010200004009124E4E00010102F6
:100DDC000301000000010000CC0D00001200000017
:100DEC0000020000800D00004B000000000300001A
:100DFC00280D00000400000001030904180D000078
:100E0C000E00000002030904FC0C00001800000096
:0C0E1C0003030904E80C000012000000B1
:100E2800FF00000000C201000000080000000000F0
:00000001FF
