:102000006F00603D000000006424000062240000B6
:10201000000000006224000000000000000000003A
:1020200062240000622400000000000000000000A4
:102030006224000000000000622400000000000094
:102040006224000062240000622400006224000078
:102050006224000062240000622400006224000068
:102060006224000062240000622400006224000058
:102070006224000062240000622400006224000048
:102080006224000062240000622400006224000038
:102090007631000062240000622400006224000007
:1020A0006224000062240000622400006224000018
:1020B0006224000062240000622400006224000008
:1020C00062240000622400006224000062240000F8
:1020D00062240000622400006224000062240000E8
:1020E00062240000622400006224000062240000D8
:0C20F00062240000622400006224000052
:1020FC0099C6014863D7B600B685054819A00148B2
:10210C00AE868D8EBA873383E600B308F340634AFC
:10211C00100593C7F6FFFD87FD8EBA96814733866F
:10212C00F540B388F6006342C00493C7F5FFFD8702
:10213C00FD8DB6953385E540630408026372B702E2
:10214C009307A002A38FF5FE9386F5FF637AD70061
:10215C00238FF5FE9386E5FF6374D700A38EF5FEFF
:10216C0082808507A38FC7FE4DB73306F500034663
:10217C00060085072380C8005DB7AA862E8501CE90
:10218C008328060001475C426348A70023800700B0
:10219C004842330515418280032886000C427D1885
:1021AC00C295E385B7FE938517004CC2B385E60054
:1021BC0083C5050005072380B700F1B737F800E0A9
:1021CC00032788008327C800B305E50033B5A500B5
:1021DC003E95032688008326C8003307B640333764
:1021EC00E600B387A640998FE3C507FE828081483D
:1021FC006356050081E63305A0408548058A9307A0
:10220C00100619C2930710043A88254E138667FFEF
:10221C00B377B5022A8393F6F70F6364FE049386B3
:10222C00060393F6F60F2300D800930718003355D6
:10223C00B5026376B302638808009306D00223804C
:10224C00D700930728003385E74009462380070011
:10225C0081463346C502FD1763C7C60082803E889F
:10226C0045BFB2967DBFB305D70083C8070003C82E
:10227C00050085062380150123800701E9BFB76798
:10228C0000403E95814663C3C600828013871600CA
:10229C0083C705006358C70003C715002207D98FF1
:1022AC00C207C1831CC1890689051105E9BFB7673F
:1022BC0000403E95814763C3C70082801841930656
:1022CC004500138517002380E5006355C500218365
:1022DC00A380E500890789053685F1BFB767004003
:1022EC00938707C00A053E9518419377F7706D8F59
:1022FC00398E2167D18F13070708D98F1CC18280B3
:10230C002E8693050003D9BF2E868D65C1BF8147EC
:10231C00A146138741C43E972300A7001387C1C46D
:10232C003E972300B7001387C1C33E972300C70015
:10233C008507E390D7FE8280238C01C223A801C2BB
:10234C00938701C323A2070082809387C1EE03C742
:10235C0077120DEB411122C42E862E84AA8503D54B
:10236C00671306C60547A383E712113FB767004002
:10237C00C0DB0D45930500036137B2402244014593
:10238C00410182807D558280411122C426C206C63D
:10239C00AA842E845D3FFD576319F5003165130542
:1023AC0005B8293DA28526854D37B24022852244A9
:1023BC00924441018280411122C406C62E84E93721
:1023CC00B240228522444101828097E1FF1F938114
:1023DC00610217010020130121411385C1C19385AE
:1023EC0081026377B500232005001105E36DB5FE6E
:1023FC00171500001305454A938541C01386C1C1CA
:10240C00638AC5008322050023A0550011059105A0
:10241C00E3EAC5FE896793870700FD42739002BC0F
:10242C0089629382828873A00230AD42739042809D
:10243C0097020000938242BC93E2320073905230B8
:10244C00B7F700E0154798C38D67938727CE739035
:10245C0017347300203001A0371702401C47B70611
:10246C008000D58F1CC7AA8703C7070001E73385F7
:10247C00A74082808507CDBF757122C5E6D206C7FD
:10248C0026C34AC1CEDED2DCD6DADAD8DED6E2D426
:10249C00EAD0EECE3284B68C39E18964014993845A
:1024AC0064188149930A5002130A0003254BA94B67
:1024BC0083470400130D1400A30FF10085E7BA4005
:1024CC002A449A440A49665AD65A465BB65B265C3D
:1024DC00965C065DF64D4E85F65949618280AA845C
:1024EC002E89C1B7638C57014A8685451305F101C6
:1024FC008294668C6A84AA99E28C5DBF03471400AF
:10250C0093072400528DA30FE100631E47073E84FE
:10251C008146814701A8B38777030347040005046C
:10252C008546B297130607FD9375F60FE375BBFE50
:10253C0099C2A30FE100E146BE8D63D3F600B68DC0
:10254C009306C00601466318D700034704000546EE
:10255C000504A30FE1008346F101130740066383D2
:10256C00E6066365D70293078005638EF60893072A
:10257C003006638BF60AA1D64A8685451305F10110
:10258C008294668C8DBF130D000251B71307500750
:10259C00638AE602130780076387E6061307300792
:1025AC00E39CE6FC138C4C0083AC0C003EC66685A9
:1025BC005D3DB247AA856356F0083818EE866A86E8
:1025CC0066851DA0138C4C0015C69386B6F81810A2
:1025DC0093B6160003A50C000146A9450939381815
:1025EC00EE866A86AA8508102136AA854A8628189E
:1025FC00829411B79307500718106394F600854620
:10260C00D1BF8146C1BF03A50C00138686FA1810F2
:10261C00854613361600C145D93E138C4C00AA854D
:10262C003818EE866A86C1B783A70C00138C4C0051
:10263C003818A30FF100EE866A8685451305F10163
:10264C0065B74A8666856DB7397132D42A860965B5
:10265C002ED236D6814554101305253C06CE3AD8D9
:10266C003EDA42DC46DE36C6013DF2402161828014
:10267C002A96AA876393C70082802380B7008507B8
:10268C00D5BF7971380083C5C1C006D622D4814725
:10269C003A851306F00F21489386C1C4BE9683C6B3
:1026AC0006000D07B386B602B3C6C602A30ED7FE4C
:1026BC00938641C4BE9683C60600B386B602B3C6E3
:1026CC00C602230FD7FE9386C1C3BE9683C60600EF
:1026DC008507B386B602B3C6C602A30FD7FEE39D29
:1026EC0007FB138641CB0147138441CBFD5861484E
:1026FC00B307E50003C30700B2859D46B357D3402B
:10270C00858BFD17B59B93876702FD162390F5000B
:10271C008905E39516FF05074106E31B07FD130624
:10272C0080078145138541E3A13737070240544F99
:10273C00B7070040F99A54CF9306000254C393068E
:10274C00C00F14D300D7544F93E6160054CF8546D0
:10275C00239AD7001C4393F70702EDDFB2502254A3
:10276C00930700025CC345618280411122C483C778
:10277C0081C306C626C2FD1793F7F70F154763638F
:10278C00F72E0D678A071307C76FBA979C4382878A
:10279C0083D8E1C28D47014813F5F80FB307F50252
:1027AC00930240059303900A7554F954214E93F704
:1027BC00F70F63EBA20493C6F7FF93F6F60F3E8672
:1027CC000147938541C4C2952380D5009386C1C42B
:1027DC00C2962380C6009386C1C3C2961305050218
:1027EC00938707062380E60005081375F50F93F70A
:1027FC00F70FE310C8FD938748002397F1C22244DA
:10280C00B24092444101B5BD63ECA3003386F44061
:10281C00138717001376F60F1377F70F814655B70A
:10282C00938627003307F44093F6F60F1377F70FD0
:10283C00014641BF83D5E1C293978501E18713F728
:10284C00F50F63C7070606079377F70F03C6C1C2D8
:10285C0083C6B1C203C7A1C23306F6021305F00F3B
:10286C00A148B386F602B307F70201473346A60226
:10287C00B3C6A6021376F60FB3C7A70293F6F60FEC
:10288C0093F7F70F138541C43A952300C5001385C0
:10289C00C1C43A952300D5001385C1C33A952300D2
:1028AC00F5000507E31017FF91052397B1C281BF0F
:1028BC009307F00F998F860793F7F70F41BF03CF5C
:1028CC00C1C203D7E1C283CFB1C283C2A1C28D43BF
:1028DC008147A148B306F700B3E6760295EA7A88F9
:1028EC007E859685938641C4BE9623800601938689
:1028FC00C1C4BE962380A6009386C1C3BE96238016
:10290C00B6008507E39817FD05072397E1C2C5BDFF
:10291C00014801458145F9B703D7E1C22546337615
:10292C00C70283CFC1C283C2B1C283C3A1C28147D4
:10293C00214363DBC702FE8816881E85938641C43B
:10294C00BE96238016019386C1C4BE9623800601D1
:10295C009386C1C3BE962380A6008507E39B67FCC4
:10296C0005072397E1C261BD814801480145F9B7CC
:10297C0003CFC1C283CFB1C203A781C083C2A1C29E
:10298C008146A1489317D7003D8F93571701B98FF4
:10299C00139757003D8F9D8B95CF0148014581457D
:1029AC00938741C4B697238007019387C1C4B69718
:1029BC002380A7009387C1C3B6972380B7008506F1
:1029CC00E39216FD23A4E1C083D7E1C285072397C8
:1029DC00F1C235B57A887E859685D9B703D8E1C220
:1029EC0003D781C2636AE800014681450145EFF0D7
:1029FC001F92238C01C221B5B3070741AA07B3D795
:102A0C00E70203C6C1C283C6B1C203C7A1C2A148B3
:102A1C00B387F702A9833306F602B386F60229823E
:102A2C001376F60FB307F702A98293F6F60F014758
:102A3C00A98393F7F70F938541C4BA952380C500FA
:102A4C009385C1C4BA952380D5009385C1C3BA952B
:102A5C002380F5000507E31017FF93071800239751
:102A6C00F1C271BBB240224492444101828083C7BF
:102A7C0061C24147636DF7000D678A071307477101
:102A8C00BA979C43411106C622C426C282871307FB
:102A9C00100B6388E722636AF70213070002638E48
:102AAC00E7181307000B6397E722B7576B6E3727AE
:102ABC000020938747F52328F77EB707EFBE37E74B
:102ACC0000E0938707083CC701A01307000F63853C
:102ADC00E71E8280EFF05F86014681450145EFF0ED
:102AEC001F832244B2409244410161BEEFF0DF8467
:102AFC009387C1C903C6270083C5170003C5070008
:102B0C00F9BFEFF07F839387C1C983C607001D47C8
:102B1C00636DD71A03C61700138741C43697230079
:102B2C00C70003C627001387C1C436972300C7000C
:102B3C0083C737001387C1C336972300F70055B7F7
:102B4C0003C7C1C92386E1C069BFEFF0EFFE9387CD
:102B5C00C1C90147214683C50700938641C4BA9673
:102B6C002380B60083C517009386C1C4BA96238010
:102B7C00B60083C527009386C1C3BA962380B600DE
:102B8C0005078D07E319C7FCA9BFEFF0EFFA938790
:102B9C00C1C903C8470003C46700238601C103C72A
:102BAC00070083C6570003C5170083C5270003C65B
:102BBC003700B707004083D447422204558CA294B7
:102BCC00C2049307F00FC1806317F702EFF02FF4E4
:102BDC00E30904F09387C1C80147854521469386D4
:102BEC0001C3BA96239097002380B6000507890786
:102BFC00E317C7FEFDB59D47E3E5E7EE938741C4B8
:102C0C00BA972380A7009387C1C4BA972380B700D3
:102C1C009387C1C3BA972380C700E30404EC9316CF
:102C2C0017009387C1C8B69723909700938701C369
:102C3C00BA9705472380E7006DB59387C1C983C652
:102C4C00070015461387F6FF1377F70F6364E60842
:102C5C0003C6270023A801C2138701C32322070040
:102C6C00238CD1C22386C1C203C63700A385C1C23F
:102C7C0003C6470083C717002385C1C2239701C22F
:102C8C0019466395C60291E3F9479306803E239259
:102C9C00D1C01307C003B387E7022394F1C2B7076F
:102CAC00004003D747422392E1C2C1B499E3930792
:102CBC0080022392F1C0E5B78D45138581C16FF079
:102CCC00CFE89145138541C1DDBFB2402244924407
:102CDC00410182808280B717024098433971C166E6
:102CEC00558F06DE22DC26DA4AD84ED652D456D27E
:102CFC005AD05ECE62CC66CA98C337E7160013076B
:102D0C0007363AC632479306F7FF36C611C79843C3
:102D1C009316E700E3D806FEB717024098439316C4
:102D2C00E70063DD0606B72602409842619B1367F5
:102D3C00170098C24167D8C39843B7060001558F56
:102D4C0098C337E71600130707363AC6324793067F
:102D5C00F7FF36C611C7984393166700E3D806FEF3
:102D6C00371702401C439396670063D906025C43F5
:102D7C002146F19B93E727005CC3B7E716009387C6
:102D8C0007363EC6B2479386F7FF36C689C75C4303
:102D9C00B18BE399C7FEB7170240DC43130720330E
:102DAC00239CE1C4B7F5FF1F37F7FF1F938781C53D
:102DBC001307877E11689385457F034607009306AA
:102DCC004884A38107001375F60011823695B296DC
:102DDC000345050083C60600A38207002382A700D3
:102DEC002381D70005079107E319B7FCB7170240F9
:102DFC00D843B70640FFFD16758FD8C3984F3716CA
:102E0C00F0FF7D161367470098CF37170140130763
:102E1C0007805443F18E37260200D18E54C3B70677
:102E2C00001814CB984FB70680001367570098CF43
:102E3C001147D8CBD84F558FD8CFB7670040938761
:102E4C0007C00547B8C323A0070402C41307703E8C
:102E5C00A247635BF71AB7670040938707C023A8A4
:102E6C0007049387C1EE9387071005470946FD5663
:102E7C0037690040A16B90CBD8CB94CFD8CF93843B
:102E8C00C1EE13040008130C001C8D6CBA89368A31
:102E9C00938B0B40B28A130B0904637B8C00A285C5
:102EAC00130404FC13858C754204EFF0EFF9418098
:102EBC0083A704111387F7FF63ECE91413171400AD
:102ECC002395E412232089002322090063845715DB
:102EDC00130404044204418041099104E31F69FB7B
:102EEC00B747024093870780984371761306F6B76D
:102EFC001367270098C3B76700402967938707C0FB
:102F0C00130707C0B8C323A207044147B7E700E083
:102F1C0023A2E710371702405C4F854493E7270044
:102F2C005CCFB70700402394C7427D562396C74217
:102F3C00130600082390C740239A974003D60740F6
:102F4C00458E2390C740544F45767D16C58E54CF81
:102F5C00544BC58E54CB144F93E6560014CFB71672
:102F6C000140938606809842718F2D66518F98C2CE
:102F7C00239407021307B0032396E7022390070458
:102F8C0003D7C701996651461377F70F558F239EC8
:102F9C00E70003D707028566B285558F2390E702B9
:102FAC0003D707009386070432851367070823901D
:102FBC00E70003D7C700136707102396E70037070E
:102FCC000240232E070054D389669386065954CFAA
:102FDC0003D70700458F2390E700EFF04FB3EFF0D6
:102FEC004FEA37C5DB00130505A0EFF02F9D014616
:102FFC0081450145EFF0AFB1EFF0AFE803AA41C551
:10300C0063020A0801449DA8A24785073EC489B5FE
:10301C00E39447ED931714002396F41223248900AC
:10302C002326790175B503A701C29387C1EAA2973C
:10303C0083C70700631107102383F1C2A38E01C05D
:10304C004147636FF7000D678A071307C777BA9775
:10305C009C4382871147238EE1C023A091C231A8E3
:10306C001307100B636CF70A1307F00A636CF70A6B
:10307C00930600021547E380D7FE0504E34544FBA5
:10308C0023AA01C4B707004003D44742420441803D
:10309C00138701C39386C1C88147814521450346E7
:1030AC0007001DCA03D606003306C440131E0601D2
:1030BC0063440E021386C1C33E962300060013869A
:1030CC00C1C43E9623000600138641C43E962300DD
:1030DC000600230007008545850705078906E39050
:1030EC00A7FC99C1EFF0EFD983C781C395C383D7F0
:1030FC0041C283D641C01D8C420413960601418403
:10310C0041866347C400B6972392F1C2EFF0EFE516
:10311C003165130505B8EFF06F8ACDB51307000FB5
:10312C00E39DE7F4238E01C0EFF07F94B9B76147BC
:10313C001DB71D470DB703C6D1C19386C1C9B29641
:10314C002380F6001307160083C7C1C11377F70F4E
:10315C00A38EE1C0E363F7F2EFF07F9123A001C2ED
:10316C0029BF0D47CDBD0547FDB51D714AD2376945
:10317C000040A6C4832449C43ED886CE96CC9ACAB5
:10318C009EC8A2C6AAC2AEC032DE36DC3ADA42D63D
:10319C0046D44ED052CE56CC5ACA72C876C67AC4D1
:1031AC007EC29397040163D7071E13FAF400130928
:1031BC0009C093172A003E99832909001397090126
:1031CC006350070E1384C1EE631B0A401397490129
:1031DC00635707400355C41221469385C1EFEFF0A6
:1031EC000F8D0357040183552401034604019356A4
:1031FC0087002207558F2396E1EE0357440183562F
:10320C0064012326040042074D8F2311D40058C0BB
:10321C009375060683471401639E05322946636441
:10322C00F62C0D668A071306067CB2979C438287A0
:10323C0091679387878591659043631AE61283AAF9
:10324C00470083C487002326540163D39600B684B9
:10325C00139B0401135B0B012311640193070004FE
:10326C0063D39700BE840355A412D6852686EFF04F
:10327C000F81B7670040C4C3930500030145A69AAC
:10328C00330B9B40EFF0CF872326540123116401AD
:10329C008327090093F7F77093E707082320F900B9
:1032AC0093F90908638409089387C1EED2972382A6
:1032BC0007121384C1EE63130A06034704009547F3
:1032CC00631BF70003479400B7670040938707C060
:1032DC0013670708F8C7835924006384093C9307D4
:1032EC000004CE8463F33701BE84032AC400035563
:1032FC00A412C204C180D2852686EFE05FF8B767BE
:10330C000040C4C3930500030145269AB389994034
:10331C00EFE01FFF2326440123113401832709000A
:10332C00216793F7F770D98F2320F900B767004016
:10333C00938707C061777D17F8C33644F640E642A1
:10334C005643C643A644164586457256E256525716
:10335C00C2573258A25812598259724AE24A524BF9
:10336C00424EB24E224F924F256173002030B1076E
:10337C001386058AE392C7ECC1450145EFE05FF87F
:10338C0085650145EFE05FF893F9F970B767004088
:10339C0023A037C193F70440E9C3B7670040938774
:1033AC0007C01307F0BFF8C323A807041387C1EEA7
:1033BC002302071223140700A305070023A007000C
:1033CC00A30207120544C0C323030712894694C7FE
:1033DC00A30307120D47D8C71306002093050060FE
:1033EC000145EFE0BFEF0D66B2850145EFE01FEF41
:1033FC0013060002930500030145EFE03FEE9389AD
:10340C00C1EE114A03A94911630E09020146930545
:10341C0000602285EFE09FECB7670040938707C000
:10342C00131724003E971C43C19BC18F1CC3FD572F
:10343C00631EF9268D652285EFE01FED81452285FF
:10344C00EFE01FEC05049109E31E44FBB767004055
:10345C00938707C013070008F8C79397440163D2FA
:10346C000702B76700407D77938707C01307F77F84
:10347C00F8C39387C1EE03C7A70013672700238502
:10348C00E7009397340163D00702B76700407D775C
:10349C00938707C07D17F8C39387C1EE03C7A700B6
:1034AC00759B2385E70093F7041081CBB767004029
:1034BC00938707C01307F0EFF8C393F7042081CB71
:1034CC00B7670040938707C01307F0DFF8C39397E3
:1034DC002401E3D407E6B7670040938707C07977E8
:1034EC0099BDA304E400B767004023A2070093052D
:1034FC0000030145EFE0DFE061BB85472304E400F6
:10350C00A305F400CDB70355A41209469385C1EF6A
:10351C0023180400EFE0BFD6B76700400947D8C3B3
:10352C00930500030145EFE0BFDD231104008DB3CB
:10353C00230804000355A41205469385C1EFEFE060
:10354C001FD4B76700400547D9BF834784002308C1
:10355C00F400CDB71377060219CB1307100263835F
:10356C00E7026368F70013070002638BE7008144EE
:10357C0019A89387E7FD93F7F70F0547E369F7FE63
:10358C00E38C06DEB6846206618663520604939A67
:10359C00040193DA0A01231154019307000463D345
:1035AC009700BE840355A41226869385C1EFEFE0E5
:1035BC001FCDB7670040C4C3930500030145B38A10
:1035CC009A40EFE0FFD344C423115401D1B181DE02
:1035DC008D650145EFE05FD39305000219BF93861B
:1035EC0037008A063767004036970443931A6A00FF
:1035FC00A297C10A03D5C71293F4F43FA29A268668
:10360C00D685EFE0DFCA63150A028357240081CF09
:10361C0023110400B767004023A2070093050003A1
:10362C000145EFE0FFCD8D650145EFE0FFCD8DB19C
:10363C008947631EFA0203A741C593070004998FBB
:10364C00858F63DE07009386C1EAB305F0409D8E3B
:10365C001305F0036350B5023E9723AAE1C48146DB
:10366C00814763C2970281C6269723AAE1C48D6560
:10367C00528565BF83C806003388F6008505230094
:10368C0018018506C1BFB306F7001385C1EAAA96D7
:10369C003385FA000345050085072380A60085467F
:1036AC00C9B78D650145EFE03FC68DB98547E31B72
:1036BC00F9D881452285EFE03FC59305000241B35F
:1036CC0018036E006F006B006E006F006B00200023
:1036DC004C00450044007300000000000E036E0017
:1036EC006F006B006E006F006B0000000403090498
:1036FC009C27000040280000CA2800002429000054
:10370C007C290000E8290000E02A0000F82A0000CB
:10371C000E2B00004C2B0000562B0000EE2A000054
:10372C00D62C0000D62C0000D62C0000D62C000085
:10373C00D62C0000D62C0000D62C0000D62C000075
:10374C00D62C0000D62C0000962B00004352495476
:10375C004943414C3A205553424420504D41204F4F
:10376C00564552464C4F5720282564290A00000024
:10377C00303100006E31000060300000723100000A
:10378C003A310000303100008630000086300000F5
:10379C008630000086300000863000008630000045
:1037AC008630000086300000863000008630000035
:1037BC003E31000012350000F2340000F2340000FB
:1037CC00F2340000F2340000EE3400003C32000011
:1037DC00F234000056350000063500003C35000080
:1037EC0009024300020100803209040000010202B8
:1037FC00010005240010010524010001042402022B
:10380C00052406000107058103400001090401009D
:10381C00020A0000000705020240000007058302AF
:10382C0040000000120110010200004009124E4E2F
:10383C0007000102030100003031323334353637D2
:10384C003839414243444546000000000001000065
:10385C00303800001200000000020000EC370000BD
:10386C004300000000030000F836000004000000D4
:10387C0001030904E83600000E00000002030904ED
:10388C00CC3600001800000003030904540000208B
:04389C0032000000F6
:1038A000280000000DF0A5A5FF00000000000000AA
:0838B000010108014E4E040065
:0400000300002000D9
:00000001FF
